:020000040800F2
:10000000581F002089010008910100089301000891
:100010009501000897010008990100080000000000
:100020000000000000000000000000009B0100082C
:100030009D010008000000009F010008A1010008C8
:10004000A3010008A3010008A3010008A301000800
:10005000A3010008A3010008A3010008A3010008F0
:10006000A3010008A3010008A3010008A3010008E0
:1000700069050008A3010008A3010008A301000806
:10008000A3010008A301000861020008A301000801
:10009000A3010008A3010008A3010008A3010008B0
:1000A000A3010008A3010008A3010008A3010008A0
:1000B000A3010008A3010008A3010008A301000890
:1000C000A3010008A3010008A3010008A301000880
:1000D000A3010008A3010008A3010008A301000870
:1000E000A3010008A3010008A301000800F002F822
:1000F00000F03AF80AA090E8000C82448344AAF188
:100100000107DA4501D100F02FF8AFF2090EBAE885
:100110000F0013F0010F18BFFB1A43F0010318473B
:10012000102F0000302F0000103A24BF78C878C18B
:10013000FAD8520724BF30C830C144BF04680C60ED
:10014000704700000023002400250026103A28BF35
:1001500078C1FBD8520728BF30C148BF0B60704739
:100160001FB51FBD10B510BD00F044F81146FFF7D4
:10017000F7FF01F0DBFC00F062F803B4FFF7F2FFD9
:1001800003BC00F065F800000948804709480047B3
:10019000FEE7FEE7FEE7FEE7FEE7FEE7FEE7FEE737
:1001A000FEE7FEE704480549054A064B7047000094
:1001B0001D0F0008ED00000858190020581F0020EE
:1001C000581B0020581B002070477047704710B51F
:1001D00000F008F8006810BD10B5044600F002F801
:1001E000046010BD00487047F418002000487047B4
:1001F000F41800207546FFF7F9FFAE460500694682
:10020000534620F00700854618B020B5FFF7CAFF17
:10021000BDE820404FF000064FF000074FF0000807
:100220004FF0000B21F00701AC46ACE8C009ACE888
:10023000C009ACE8C009ACE8C0098D46704710B5EC
:100240000446AFF300802046BDE81040FFF795BF9D
:1002500001491820ABBEFEE72600020070470000EF
:1002600010B54FF4A071164800F06CF8012826D1A3
:10027000134800F05AF8044612480068201A50212A
:1002800090FBF1F00F49096808440E4908600846E0
:10029000046840F66240844203DD022000F01EFA4A
:1002A00007E040F65430844203DD0821064800F0A0
:1002B000C7FA4FF4A071024800F01DF800BF10BD4E
:1002C0000024014040000020000801400A460021AF
:1002D0004168024B1940114341607047FFFD3FFFE9
:1002E0000A460021416821F01F0111434160704717
:1002F00041628262704700220A12D3430360704752
:1003000021B1826842F00102826003E0826822F03B
:10031000010282607047014600208A6802F00402F0
:100320000AB1012000E0002070470146C86C80B28D
:1003300070470246002013680B400BB1012000E01B
:100340000020704770B502460020002300240B12E5
:100350005568CEB205EA060415681D4015B10CB10A
:10036000012000E0002070BD014600208A6802F0F4
:1003700008020AB1012000E00020704710B50023F8
:10038000CBB21AB144681C43446002E044689C4309
:10039000446010BD30B502460020002350680F4C69
:1003A00020400D790C6844EA052420435060906891
:1003B0000B4C2040D1E902542C434D7944EA4504CA
:1003C00020439060D06A20F470000C7C641EE4B27C
:1003D000234340EA0350D06230BD0000FFFEF0FF2F
:1003E000FDF7F1FFF0B504460D4600200021092D70
:1003F00011DDE068A5F10A0606EB4607072606FAB6
:1004000007F18843A5F10A0606EB460603FA06F152
:100410000843E0600CE0206905EB4507072606FA73
:1004200007F1884305EB450603FA06F1084320610E
:10043000072A0FDA606B561E06EB86071F2606FAA0
:1004400007F18843561E06EB860605FA06F10843B7
:10045000606322E00D2A0FDA206BD61F06EB8607B9
:100460001F2606FA07F18843D61F06EB860605FA13
:1004700006F10843206310E0E06AA2F10D0606EBE6
:1004800086071F2606FA07F18843A2F10D0606EB40
:10049000860605FA06F10843E062F0BD816841F086
:1004A00008018160704721B1826842F4A002826035
:1004B00003E0826822F4A00282607047816841F004
:1004C0000401816070470021016001714171816008
:1004D000C1600121017470470146002901DA4842D8
:1004E00070470846FCE700002DE9F041052001F0C7
:1004F000B3FA074602F0AFF804460D460022134651
:100500002046294602F0D2F801D20024254613489D
:10051000006800EB800046002046294602F06EF895
:1005200081B20F480F4A126820F812100D48006877
:10053000401C0C49086008460068282801D10020AA
:10054000086000BF002003E0054A32F81010401C8C
:100550002828F9DB00BFBDE8F08100000000002082
:10056000BA0000204400002010B529480078002877
:100570004AD00021274800F011FD0021264800F054
:100580006DF8002124483C3800F068F8002122482A
:10059000503800F063F82148007840B120481E49E7
:1005A0006C3988671F48C8631F48886207E01F4886
:1005B00019496C3988671E48C8631E4888621E48FE
:1005C000008815496C3908671B48008848631A4839
:1005D00000880862194800880E49283108800121E6
:1005E0000D4800F03BF801210B483C3800F036F88C
:1005F00001210948503800F031F80121054800F088
:10060000CDFC002002490870202000F019F810BD30
:1006100024000020002C01406C0002405E000020FD
:10062000F6140020FA100020FE0C00200209002021
:10063000060500200A010020200000201C000020E8
:1006400000F0805111B10349086001E0024948609F
:1006500070470000040402400000024021B102681B
:1006600042F00102026004E002684FF6FE731A4095
:10067000026070471AB103680B43036002E003682D
:100680008B430360704710B50022026847F6F07391
:100690009A430C6A8B6823430C6923434C692343B8
:1006A0008C692343CC6923434C6A23438C6A2343DC
:1006B0001A430260CB6843600B6883604B68C36079
:1006C00010BD0021016041608160C1600161416134
:1006D0008161C161016241628162704710B5044667
:1006E0004FF40041074800F0ABF8074804600020D1
:1006F00000F072FB0821054800F0A0F80020044932
:10070000086010BD001001402800002000080140D2
:10071000340000202DE9F04102460025002600208B
:1007200000230024002791F803C00CF00F0591F876
:1007300003C00CF0100CBCF1000F03D091F802C004
:100740004CEA050591F800C0BCF1000F31D01468E7
:1007500000202BE04FF0010C0CFA00F3B1F800C0C0
:100760000CEA03069E4220D183004FF00F0C0CFAD6
:1007700003F7BC4305FA03FC4CEA040491F803C0F8
:10078000BCF1280F06D14FF0010C0CFA00FCC2F8A6
:1007900014C00AE091F803C0BCF1480F05D14FF036
:1007A000010C0CFA00FCC2F810C0401C0828D1D380
:1007B0001460B1F800C0BCF1FF0F34DD54680020B4
:1007C0002EE000F1080C4FF0010808FA0CF3B1F824
:1007D00000C00CEA03069E4221D183004FF00F0CAB
:1007E0000CFA03F7BC4305FA03FC4CEA040491F845
:1007F00003C0BCF1280F05D100F1080C08FA0CF871
:10080000C2F8148091F803C0BCF1480F07D100F181
:10081000080C4FF0010808FA0CF8C2F81080401CD0
:100820000828CED35460BDE8F081024600209368CA
:100830000B400BB1012000E0002070474161704780
:10084000016170474FF6FF71018002218170042120
:10085000C170704710B500F043F90446FFF744FE3D
:1008600028B14FF480611348FFF7DFFF18B91E2449
:100870000A2001F00BF91049104A126821F81240C1
:100880000E480068401C0D4908600846006823288F
:1008900001D1002008600024002004E0064931F85E
:1008A00010100C44401C2328F8DB232094FBF0F4A8
:1008B000204610BD000C0140740000202C000020D8
:1008C00008B5012140F61D0000F0FAF86846FFF770
:1008D000B9FF10208DF8030041F20900ADF80000C7
:1008E00003208DF8020069461648FFF713FF4820E1
:1008F0008DF803004FF40060ADF8000003208DF880
:10090000020069460F48FFF705FF48208DF80300F5
:100910004FF4F060ADF8000001208DF80200694648
:100920000948FFF7F7FE10208DF803004FF46040F0
:10093000ADF8000001208DF8020069460348FFF77A
:10094000E9FE08BD00080140000C01400010014014
:100950001CB501A8FFF776FF10208DF807004FF4B3
:10096000E060ADF8040001208DF8060001A90A48F6
:10097000FFF7D0FE6846FFF765FF10208DF80300F3
:100980004FF46040ADF8000001208DF80200694688
:100990000248FFF7BFFE1CBD00080140000C0140EB
:1009A00070B5002100230F22C47804B3154C2468CD
:1009B00004F4E064C4F5E064210AC1F10403CA4010
:1009C000447804FA03F184781440214309010E4C61
:1009D0000678A155047804F01F050124AC40057881
:1009E0006D11AD0005F1E025C5F8004109E004787E
:1009F00004F01F050124AC40044D0678761145F83B
:100A0000264070BD0CED00E000E400E080E100E075
:100A10002DE9F0414FF400411D48FFF711FF00247C
:100A200019E00F2C00DD22E0204604EBD0714910C4
:100A3000A4EB410129B94FF400411548FFF700FF2D
:100A400004E04FF400411248FFF7F8FE4FF49670AF
:100A500001F01CF8641C062000F0FEFF074601F0C0
:100A6000FAFD05460B4A0C4B01F020FED9D300BF1E
:100A70004FF400410648FFF7E1FE002007490860F7
:100A80004FF480410248FFF7DBFEBDE8F081000033
:100A90000010014067666666A628A0402800002076
:100AA00029B1064A52690243044B5A6104E0034AE1
:100AB00052698243014B5A617047000000100240A6
:100AC00029B1064A92690243044B9A6104E0034A41
:100AD00092698243014B9A61704700000010024006
:100AE00010B54FF480710948FFF79FFE08B9A520A3
:100AF00010BD4FF400710548FFF797FE10B94FF491
:100B00001B70F5E74FF4E170F2E70000000C0140C4
:100B100010B5FFF79FFE044607490968601AFFF702
:100B2000DBFC032807DD04480460204600F006F8DB
:100B3000142000F0ABFF10BD380000202DE9F04775
:100B400086B082462B48C0F800A00068C8281EDB8B
:100B500028490968284A92FBF1F1032291FBF2F13E
:100B600001EB4100B0F5FF7F04DD4FF4FF71234A34
:100B700011800BE0214909881E31814204DC1F49A4
:100B800009881E39814201DA1C4A108003E04FF4C3
:100B9000FF701A4908801949098801EB4102C2EB2C
:100BA000C11001F058FD04460D461248006801F0DE
:100BB00052FD80460022124B01F098FBCDE9020164
:100BC0001048006801F05EFDCDE90001DDE9022377
:100BD00001F08CFB064622462B4601F087FBCDE94F
:100BE000040101F0DBFC0849086001F0D3F806B00D
:100BF000BDE8F08734000020E02202002000002041
:100C000000002440600000201C00002010B500F00F
:100C100001F810BD0CB50020019000903348006829
:100C200040F480303149086000BF3048006800F46B
:100C3000003000900198401C0190009818B901986C
:100C4000B0F5A06FF1D12948006800F4003010B170
:100C50000120009001E0002000900098012843D17D
:100C60002348006840F010002149086008460068E9
:100C700020F0030008600846006840F002000860A9
:100C80001A48406819494860084640684860084664
:100C9000406840F4806048600846406820F47C105A
:100CA00048600846406840F4E8104860084600681C
:100CB00040F08070086000BF0C48006800F00070D1
:100CC0000028F9D00948406820F00300074948602F
:100CD0000846406840F00200486000BF0348406892
:100CE00000F00C000828F9D10CBD000000100240F3
:100CF000002002402DE9F0414FF480413148FFF7D8
:100D00009FFD002403E0FFF7EFFB8046641C282CC6
:100D1000F9DB002403E0FFF79DFD0546641C232C4E
:100D2000F9DB0120284908702D20FFF707FFFFF7A6
:100D30001BFC01F0BDF900F0D1FE00F079FF00F0DE
:100D4000F7FF00F0C3FF142000F0A0FE00263024BF
:100D500033E0641C4FF480611C48FFF766FD60B906
:100D6000322C06DDE41E4FF400411648FFF768FD03
:100D700019E00120FFF7B2FC15E04FF400411148E3
:100D8000FFF75CFD2046FFF7D9FEFFF7ADFB38B15A
:100D90000F490868C11700EB917104EBA10402E050
:100DA000C82000F073FE0B4800684FF47A7191FB85
:100DB000F0F7384600F06AFEE41CAC42C9DBBDE83F
:100DC000F0810000001001405E000020000C014096
:100DD0000C000020040000202DE9F0410546002D04
:100DE00043D04448006800283FDD0026424804689C
:100DF00033E02046FFF7A2FE08214048FFF71EFD22
:100E00004FF480613E48FFF710FD40B9761C4FF467
:100E100000413C48FFF714FD322E14DD1FE04FF473
:100E200000413848FFF70AFD37490868C11700EB51
:100E30009171B4EBA10F06DD33490868C11700EBCF
:100E40009171A4EBA1042B4800684FF47A7191FBD7
:100E5000F0F7384600F01AFE641E322CC9DC00BFE1
:100E600008212648FFF7EAFC00BF00202749086058
:100E70000A2000F00BFE00212548FFF7EFFB0021C0
:100E800023483C38FFF7EAFB002121485038FFF7A0
:100E9000E5FB00211F4800F081F8FFF759FD002015
:100EA0001D4908804FF400511548FFF7C7FC4FF467
:100EB00080411348FFF7C2FC4FF400411048FFF790
:100EC000BDFC012000F0E2FD4FF480710B48FFF7FC
:100ED000B7FC4FF400710948FFF7B2FC4FF4806192
:100EE0000648FFF7ADFC08210448FFF7A7FCBDE862
:100EF000F0810000080000203400002000080140BC
:100F0000000C0140001001401000002048000020AB
:100F10006C000240002C01402200002010B5134854
:100F2000006840F001001149086008464068104917
:100F300008400E494860084600680E4908400B49C1
:100F400008600846006820F4802008600846406871
:100F500020F4FE0048604FF41F008860FFF756FE43
:100F60004FF000600449086010BD0000001002400E
:100F70000000FFF8FFFFF6FE08ED00E00A884B884E
:100F80001A438B881A43CB881A430B891A434B891F
:100F90001A438B891A43A0F84420704721B1028874
:100FA00042F00102028004E002884FF6FE731A400C
:100FB0000280704731B1B0F8442042F40042A0F8FA
:100FC000442005E0B0F84420C2F30E02A0F844200B
:100FD00070471AB183890B43838102E083898B4375
:100FE0008381704770B5002400220023058C4FF6E2
:100FF000FE7635400584028C8388048B4FF68F750E
:101000002C40B51E2C400D882C43751E2A400D899E
:101010002A434D882A43144DA8420BD0134DA842B1
:1010200008D0134DA84205D0124DA84202D0124D4F
:10103000A84213D14FF6F7752A404D892A434FF63F
:10104000FB752A408D882A434FF6FF652B404FF6EB
:10105000FF552B408D892B43CD892B4383800483FF
:10106000CD888586028470BD002C0140003401408B
:101070000040014000440140004801400A46002170
:10108000018B4FF6F773194011430183704700003D
:1010900070B5002400220023058C4FF6EF76354012
:1010A0000584028C8388048B48F6FF752C404FF62C
:1010B000FF452C400D884FF6FF7606EA05252C43A8
:1010C0004FF6DF752A400D8906EA05152A434D883B
:1010D00006EA05152A43154DA84202D0144DA84230
:1010E0001DD14FF67F752A404D894FF6FF7606EAEF
:1010F00005152A434FF6BF752A408D8806EA051567
:101100002A434FF6FF352B404FF2FF752B408D8958
:1011100006EA85052B43CD8906EA85052B438380A6
:101120000483CD880587028470BD0000002C014037
:10113000003401400A460021018B4FF2FF73194031
:101140004FF6FF7303EA022319430183704700003F
:1011500070B5002400220023058C4FF6FF66354051
:101160000584028C8388848B4FF68F752C404FF654
:10117000FC752C400D882C434FF6FF552A400D89F5
:101180004FF6FF7606EA05252A434D8806EA05252F
:101190002A43154DA84202D0144DA8421DD14FF24A
:1011A000FF752A404D894FF6FF7606EA05252A434A
:1011B0004FF6FF352A408D8806EA05252A434EF66C
:1011C000FF752B404DF6FF752B408D8906EA0515FE
:1011D0002B43CD8906EA05152B4383808483CD8874
:1011E0008587028470BD0000002C0140003401405E
:1011F0000A460021818B4FF6F77319401143818312
:1012000070470000002202881D4B98420ED01D4BF3
:1012100098420BD0B0F1804F08D01B4B984205D0BC
:101220001A4B984202D01A4B984204D14FF68F7352
:101230001A404B881A43174B984207D0164B9842D6
:1012400004D04FF6FF431A40CB881A4302808B88A4
:1012500083850B8803850A4B98420BD0094B984233
:1012600008D00E4B984205D00D4B984202D00D4B42
:10127000984201D10B7A03860123838270470000D4
:10128000002C0140003401400004004000080040F0
:10129000000C0040001000400014004000400140DD
:1012A00000440140004801404FF6FF718180002159
:1012B0000180C180418001727047490050EAC1201D
:1012C00018BF04204A0D18BF40F0010040F2FF7221
:1012D000B2EB515F08BF40F00200012808BF0520B3
:1012E000704700002DE9F74F144694B00021C4E97F
:1012F00002111599079121F00045C9498D4206DC7C
:101300001599C4E9000117B00020BDE8F08FC54968
:10131000DFF814A3A9423CDD0799C44E0029C44F4D
:10132000C44A1599534619DD01F03CFB554506D0DA
:10133000C14AC24B01F036FBC4E900010AE04FF09C
:10134000D352BE4B01F02EFB32463B4601F02AFB46
:10135000C4E9000117B00120BDE8F08F00F00AFFDA
:10136000554506D0B44AB54B00F004FFC4E900016E
:101370000AE04FF0D352B14B00F0FCFE32463B4640
:1013800000F0F8FEC4E9000117B04FF0FF30BDE8EF
:10139000F08FAB49A942159978DB21F000418346D3
:1013A0008846A84AA84B01F0BDF90022A74B00F0DF
:1013B000E1FE01F0F3F8099001F04DF906460F4601
:1013C0009C4A534601F0AEF943465A4601F0DEFA14
:1013D00080468A46984A994B3046394601F0A2F930
:1013E0002A0D01250B924246534601F0CFFA032DF8
:1013F000C4E9000139D00B98C1F30A51401A05EB3A
:1014000045111139814230DA9148C346784400EBE6
:101410000510CDF80CA00C90D0E9002330463946D9
:1014200001F080F902460B46049106905846039954
:1014300001F0B8FA80468A4602460B4658460399A0
:1014400001F0B0FA049B069A01F0ACFA83460C98BE
:1014500003913946D0E90223304601F063F95A4638
:10146000039B01F09FFA6D1CBDE707980028A2BFFF
:10147000099817B0BDE8F08F616881F000416160A4
:10148000099817B04042BDE8F08FFFE784461598F1
:10149000C1F31301C0F30A50A0F2F5304FEA60180F
:1014A00000F01F06C6F12000139000200690079060
:1014B00041F4801E05206D4676B1664A08EB0001B6
:1014C0007A4452F8213002EB8101B3404A68139903
:1014D00022FA01F1194305E05F4908EB0002794463
:1014E00051F82210A1FB0E27A1FB0C131A449A42BB
:1014F00034BF0123002303EB070A05EB8003D3E984
:1015000001B70F448F4234BF0121002193448B4423
:1015100011B1934502D903E0934501D2012100E0C6
:101520000021C3E901B7514445F82010011EA0F184
:101530000100C1DC0298059F00F10050800F12905D
:101540000298DDE90356800001F085F883462846BD
:101550000D9101F097F86FF01D0201F090FCCDE9BC
:101560000E01304601F08EF86FF03D0201F087FC6D
:1015700080468A46384601F085F86FF05D0201F03A
:101580007EFC074642465346119100F0F3FDDDE92B
:101590000E2300F0EFFD5A460D9B00F0EBFD0025F9
:1015A0000E465A4628460D9B01F0FCF9DDE90E2354
:1015B00001F0F8F94246534601F0F4F93A46119B1E
:1015C00001F0E4F9DFF898A0244A534601F0AAF8A4
:1015D00007468846234A244B3146284601F0A2F8A4
:1015E0003A46434600F0C6FD074688464FF0A842FB
:1015F00053463146284601F095F83A46434600F0F6
:10160000B9FD159A12F0004F04D0129A81F00041F2
:1016100052421292C4E90001129817B0BDE8F08F4F
:10162000FB21E93F7CD90240FB21F93F7370032E77
:101630008A19A33B000040543163621A61B4D03D63
:10164000FB21394183C8C96D305FE43F0000E03FB2
:10165000301B0000AC1A00008E1A0000182D4454F4
:10166000FB21F93D3326A611460B113C2DE9FF4D18
:1016700021F0004807460C46B8F1795F08DA00F01F
:101680008DFF002801BF0020324904B0BDE8F08D75
:101690003A4623461046194601F044F805460246EC
:1016A0002D480E460B460621784400F05DF82A4688
:1016B000334601F037F8DDE9022382468B4638468F
:1016C000214601F02FF804460F4652465B46284655
:1016D000314601F027F822463B4601F063F9074600
:1016E0008A464FF0FF322846314601F0C8FB1B4ABC
:1016F00090450ADA3A46534601F054F904B0002204
:10170000BDE8F04D134B01F041B9154A4245A8BF61
:10171000A8F500154FF00004B8BF124D22462B4625
:1017200001F040F90646884622462B46002009492A
:1017300001F038F904460D463A46534630464146D4
:1017400001F030F904B022462B46BDE8F04D01F01F
:101750001DB900000000F03F641800003333D33F90
:101760000000E93F0000D23F2DE9F0414F1E00EBA1
:10177000C7010446D1E9000115461E4637F00602AE
:101780000DD02A46334600F0CDFF7F1E04EBC70381
:10179000D3E9002300F0EEFC37F00602F1D1022F6E
:1017A00025D0042F13D0062F18BFBDE8F0812A469C
:1017B000334600F0B7FFD4E90A2300F0DBFC2A46E9
:1017C000334600F0AFFFD4E9082300F0D3FC2A46EB
:1017D000334600F0A7FFD4E9062300F0CBFC2A46ED
:1017E000334600F09FFFD4E9042300F0C3FC2A46EF
:1017F000334600F097FFD4E9022300F0BBFC2A46F1
:10180000334600F08FFFD4E90023BDE8F04100F03B
:10181000B1BC00002DE9FF4D054621F0004084B029
:101820000C46B0F1795F0BDA2846FFF746FD042835
:1018300008BF00F06FF8284608B02146BDE8F08DDB
:101840002A460B46104600F06DFF06460F462A4614
:10185000234600F067FF804626488A4632463B46CC
:1018600005217844FFF780FF83461098029160B30A
:10187000214A224B4046514600F054FFCDE9000179
:101880005A4640465146029B00F04CFF824688462D
:10189000DDE906014FF0FF3201F0F1FA524643460E
:1018A00001F080F832463B4600F03CFFDDE90623BC
:1018B00001F078F8DDE9002301F074F808B02A4659
:1018C0002346BDE8F04D01F061B80B465A4630465C
:1018D000394600F027FF084A084B00F04BFC42460F
:1018E000534600F01FFF08B02A462346BDE8F04DDE
:1018F00000F040BCA2170000495555555555C5BFCD
:10190000012201F0BCBA002213461046114600F035
:10191000EDBC0000024A0020110701F0B0BA00003F
:1019200001FDFFFF00B587B001214802FFF7C8F8AD
:1019300012208DF8180001208DF819008DF81A007A
:101940008DF81B0006A8FFF72BF8002001908DF8FA
:10195000080001208DF809004FF46020039000205A
:10196000049001208DF8140001A91E48FEF712FD15
:101970000723012204211B48FEF734FD002240F614
:10198000AA211848FEF7B4FC04211648FEF7A8FC6B
:1019900015491448FEF79AFC01224FF4A071114832
:1019A000FEF7ECFC01210F48FEF7AAFC0D48FEF7FC
:1019B00075FD00BF0B48FEF7D7FC0028FAD1094897
:1019C000FEF77CFD00BF0748FEF7A5FC0028FAD112
:1019D00001210448FEF794FC01210248FEF763FD53
:1019E00007B000BD002401400002800000B585B0B2
:1019F00001218802FFF764F86846FEF764FD0020C5
:101A000000908DF804008DF805004FF460200290DE
:101A10000020039001208DF8100069460D48FEF764
:101A2000B9FC01210B48FEF76BFC0A48FEF736FDB6
:101A300000BF0848FEF798FC0028FAD10548FEF7D9
:101A40003DFD00BF0348FEF766FC0028FAD105B053
:101A500000BD00000028014010B504460323012208
:101A600021460948FEF7BEFC01210748FEF71BFD91
:101A700000BF02210448FEF75CFC0028F9D00248B0
:101A8000FEF753FC10BD000000280140104A126808
:101A90004FF47A73B2FBF3F202FB00F10D4A1268C5
:101AA00042F080720B4B1A6000220B4B5A601A46B0
:101AB000126842F001021A6000BF074A52688A4267
:101AC000FBD3054A126822F00102034B1A607047EB
:101AD00060000020FCED00E0001000E01CB501A853
:101AE000FEF7B0FE18208DF807004FF4E060ADF867
:101AF000040001208DF8060001A90A48FEF70AFE3D
:101B00006846FEF79FFE4FF46040ADF800001820D5
:101B10008DF8030001208DF8020069460248FEF7A7
:101B2000F9FD1CBD00080140000C0140FFF75EFFFD
:101B3000FFF7F8FEFEF7C4FE0020FFF74DF9FEF7B1
:101B400067FF6420FFF7A2FFFFF7D4F804E0FEF779
:101B5000DFFF0A20FFF79AFFF9E700002DE9F041C7
:101B60000446204601F0F6F88046064901F030F8B8
:101B7000054601F001F80646034A044B00F0D2FD89
:101B8000BDE8F081000034436E861BF0F921094066
:101B900000B5254B21F0004287B09A4203DC0022B9
:101BA000134600922BE0214B9A4208D140B94FF0E6
:101BB0000100FEF711FBFFF7A6FE07B000BD03DB37
:101BC000FFF79EFE07B000BD02AAFFF78BFB10F0E7
:101BD00003014FF001000DD0012914D002291AD0C1
:101BE0000DF1080C9CE80F00FFF740FD07B081F0F5
:101BF000004100BD0DF1080C00909CE80F00FFF7BC
:101C000009FE07B000BD0DF1080C9CE80F00FFF7BE
:101C10002DFD07B000BD0DF1080C00909CE80F00F1
:101C2000FFF7F8FDE2E70000FB21E93F0000F07F4D
:101C300000B58BB001210846FEF732FF6846FEF77B
:101C400040FD1E4800901E480190102002901D4843
:101C500000880390002004908020059040000690AA
:101C600080000790202008900002099069461648DD
:101C7000FEF709FD01211448FEF7F0FC0122510294
:101C80000E483438FFF7A5F9012202210E48FEF76D
:101C9000F1FC0C2000280DDB00BF00BF00F01F028C
:101CA000012191404209920002F1E022C2F80011A4
:101CB00000BF00BF00BF0BB000BD0000342C0140CE
:101CC0000A010020200000201C00024000B58BB05B
:101CD0006846FEF7F6FC124800901248019010206A
:101CE0000290114800880390002004908020059005
:101CF0004000069080000790202008900002099084
:101D000069460A48FEF7BFFC01210848FEF7A6FC19
:101D10000122910202483838FFF75BF90BB000BD91
:101D2000382C014006050020200000203000024031
:101D300000B58BB06846FEF7C4FC1248009012480C
:101D40000190102002901148008803900020049018
:101D50008020059040000690800007902020089089
:101D60000002099069460A48FEF78DFC01210848E7
:101D7000FEF774FC0122D10202483C38FFF729F932
:101D80000BB000BD3C2C01400209002020000020C7
:101D90006C0002402DE9F04F91B0B048007880F01F
:101DA0000100AE490870AE480088032190FBF1FAAB
:101DB000D346AC48007810B14FEA4A0B01E04FEA35
:101DC0004A0AA948006800F046FC80460022A74B5A
:101DD00000F08CFA04460D46A54AA64B204629463B
:101DE00000F09EFD01D2A24CA24D9D48008800F05B
:101DF00049FC804642460B4600209F4900F076FA97
:101E000006460F469D48006800F0A4FF9C490C90D0
:101E100000F0DEFE0D9000F0AFFE22462B46CDE92D
:101E20000E010020974900F07DFC8046DDE90E237D
:101E300000F078FC04460D4688480078002871D1EF
:101E400080464DE008EB480000F005FC32463B467A
:101E5000CDE9000100F066FCCDE9020100F09EFB37
:101E60008146FFF77BFECDE90401FFF791FE864A2C
:101E7000864BCDE9060100F055FCCDE90A0140464C
:101E800000F000FC32463B46CDE9000100F04AFC80
:101E9000CDE9020100F082FB8146FFF75FFECDE94C
:101EA0000401FFF775FE784A794BCDE9060100F091
:101EB00061F9CDE90801DDE90A2300F05BF922466A
:101EC0002B46CDE90C0100F02DFCCDE90E0100F010
:101ED00095FB704921F8180008F101001FFA80F8FD
:101EE0005F4800888045ADDB002028E000EB0A0158
:101EF0005B4A1288914202DA00EB0A0103E058497A
:101F00000988411A5144634A32F81110624A22F892
:101F1000101000EB0B01524A1288914203DA00EBD9
:101F20000B0104E010E04E490988411A5944594A0E
:101F300032F81110594A22F81010411C88B2484951
:101F400009888842D2DB82E04FF000084DE008EBC0
:101F5000480000F080FB32463B46CDE9000100F02E
:101F6000E1FBCDE9020100F019FB8146FFF7F6FD28
:101F7000CDE90401FFF70CFE434A444BCDE90601CD
:101F800000F0D0FBCDE90A01404600F07BFB324671
:101F90003B46CDE9000100F0C5FBCDE9020100F0B0
:101FA000FDFA8146FFF7DAFDCDE90401FFF7F0FD08
:101FB000354A374BCDE9060100F0DCF8CDE90801E0
:101FC000DDE90A2300F0D6F822462B46CDE90C01C4
:101FD00000F0A8FBCDE90E0100F010FB304921F81C
:101FE000180008F101001FFA80F81D48008880459C
:101FF000ADDB002027E000EB0A01194A128891426C
:1020000002DA00EB0A0103E015490988411A51443C
:10201000234A32F81110234A22F8101000EB0B016A
:102020000F4A1288914202DA00EB0B0103E00C49DF
:102030000988411A59441A4A32F811101A4A22F8EA
:102040001010411C88B2064909888842D3DB012060
:102050001649087011B0BDE8F08F00005E00002046
:1020600020000020500000203400002000407F406D
:102070003D0AD7A3703DE23F008076401400002067
:102080000000C84200405F40295C8FC2F528CC3F69
:10209000F528EC3F0A010020060500200209002077
:1020A000FE0C0020FA100020F6140020240000206E
:1020B00000B58BB008A8FFF7F7F82C48008880B26D
:1020C000ADF820006020ADF822007D20ADF824009E
:1020D0000020ADF8260008A92548FFF793F87020E6
:1020E000ADF810000120ADF812000420ADF8140086
:1020F00004A91F48FEF776FF08211D48FEF7BEFF22
:1021000004A91B48FEF7C4FF08211948FFF712F87D
:1021100004A91748FFF71CF808211548FFF768F8CD
:1021200001211348FEF73AFF01211148FEF742FF53
:102130004FF40060ADF800004010ADF802008010D0
:10214000ADF80400A020ADF806000020ADF80800AE
:102150004FF40050ADF80A004000ADF80C0069469D
:102160000348FEF70BFF0BB000BD00001C00002071
:10217000002C014010B591EA030F48BF83F00043E3
:1021800000F11884841A71EB030C05D2121943EB89
:102190000C03001B61EB0C01DFF824E14FEA115442
:1021A000A4EB135C1EEA430F18BF9EEA445F73D092
:1021B00023EA0E03DCF1200E21EA045143F48013DC
:1021C00032D322FA0CFE10EB0E0023FA0CFE41EB88
:1021D0000E01CCF1200E03FA0EFE10EB0E0051F1B1
:1021E0000001B1F5801FCCF1200E32D201EB045179
:1021F00012FA0EF2BDE8104058BF7047401C38BFBD
:102200005FEA420218BF7047002814BF20F00100A7
:1022100041F100014FEA410313F5001F38BF704739
:10222000A1F1C04100F076BB012A43EB0302ACF1FF
:10223000200CDCF11F0E32BF4FF0000E23FA0CF31E
:1022400010EB030041EB0451B4EB115FD0D0A1EBD4
:10225000045101F5801149085FEA300001EB045197
:102260000ED350F1000038BF12FA0EFE08D1BDE8BF
:102270001040C9E7401C38BF5FEA4202CAD1C3E739
:10228000BDE810404FEA410313F5001F38BF704707
:10229000A1F1C04100F03EBB9EEA445F08D011EAC4
:1022A0005E0FBDE8104004BF01F000410020704700
:1022B000BDE8104070B500F0DFFA00BF64FBBE3E21
:1022C0000000E0FF02494FF0000000F0A6BD00BF93
:1022D0000000F87F491058BFC1F140415B1058BF62
:1022E000C3F140438B42EFF3008070472DE9C041BA
:1022F00030B4DFF8A0C23CEA111418BF3CEA131452
:1023000000F0EC8081EA03051CEA111444EAD5745C
:1023100018BF1CEA131500F0C780A4EB05044FF0AA
:10232000004545EAC12145EAC32341EA505143EA49
:10233000525304F17F74994204F500344FEAC020EF
:102340004FEAC22208BF904200F09C804FEA13651A
:102350000FF24016765D4FEA134506FB05F7C7F10D
:10236000807706FB07F74FEAD737A7FB036876426B
:10237000C8F58038A7FB06CE38BFA8F1010807FBD7
:1023800008E64FF0000EA6FB028CE6FB03CEDCF164
:10239000000CCEF1004E38BFAEF1010EA6FB0C587A
:1023A0004FF000074FF00005E6FB0E87A1FB08C6C3
:1023B000A0FB07CE16EB0E0645F10005E1FB076515
:1023C00015F1E04E7EBFA4F580345FEA46066D410C
:1023D00016F1800745F100054FEA17274FEA066618
:1023E00047EA0567A6F1DE46B6F1805F4FEA15259C
:1023F0001FD9384624F0010C05EBC471BCF1FE6F07
:1024000001EB0C1102D8F0BCBDE8008124425CBF96
:1024100001F5801E9EEAC47F02D4F0BCBDE80081B5
:10242000244238D4F0BCA1F1C041BDE8004100F025
:1024300071BA4FEAD22242EA43524FEAD323A7FBB2
:1024400002864FEAD02040EA415007FB03661EEAAD
:102450000E0F4FEAD12105FB026658BFA6EB0056CE
:10246000B6EB00564FEA520E4EEAC37E18EB0E0E44
:1024700056EB530EBDD518EB02085E417F1C55F19B
:102480000005B6E74FF480154FF000074FF0000647
:102490004FF00008ADE7F0BC4FF0000001F1C04183
:1024A00001F00041BDE8008111EA0C1F0CEA131590
:1024B00000D00CE013EA0C1F00F025804FF0000064
:1024C000F0BC81EA030101F00041BDE80081F0BCED
:1024D000BDE8004181EA030100F01CBAF0BCBDE890
:1024E000004170B500F0C8F9097EFC3E00F007B865
:1024F00081EA03014FF0000001F00041704781EADA
:10250000030100F007BAF0BCBDE800414FF0000045
:1025100021497047FFFDFBF9F7F5F4F2F0EEEDEB22
:10252000E9E8E6E4E3E1E0DEDDDBDAD8D7D5D4D3D1
:10253000D1D0CFCDCCCBCAC8C7C6C5C4C2C1C0BF1D
:10254000BEBDBCBBBAB9B8B7B6B5B4B3B2B1B0AF23
:10255000AEADACABAAA9A8A8A7A6A5A4A3A3A2A107
:10256000A09F9F9E9D9C9C9B9A99999897979695C2
:1025700095949393929191908F8F8E8E8D8C8C8B5E
:102580008B8A8989888887878685858484838382E6
:10259000828181800000FF070000F87F4FEA41033D
:1025A0004FEA5353A3F58063D3F11E03C8BFD3F1A1
:1025B000210C0CDD4FF0004242EAC12242EA5052A7
:1025C00032FA03FC8CEAE17CACEBE1707047102B33
:1025D000C4BF0020704703F5787CBCF1FF3F04D0F6
:1025E0006FF0004282EA2100704770B500F044F9B4
:1025F0004992248000207047F2E700004FEA11530F
:10260000A3F58063D3F11E03A8BFD3F1200C08DB30
:102610004FF0004242EAC12252EA505232FA03F02D
:10262000704709420BD4102BC4BF0020704703F53C
:10263000787CBCF1FF3F05D04FF0FF3070474FF082
:102640000000704770B500F017F900BF4992248070
:1026500000207047F0E710F0004248BF4042B0FA57
:1026600080F310FA03F10AD0C3F11D0303F5806370
:102670004FEA415002EB035202EBD12170474FF079
:1026800000007047B0FA80F310FA03F10AD0C3F1EA
:102690001D0303F580634FEA41504FEA035202EBFA
:1026A000D12170474FF000007047000051EA030C41
:1026B00017D41CF5801F58BFBCF5801F00F10680A1
:1026C000994218BF704708BF9042704707D711F56D
:1026D000801F58BF13F5801F19D499427047894253
:1026E00070471CF5801F08D5BCF5801FF7D58B42BD
:1026F00018BF704708BF824270474FF4001C1CEBA4
:10270000410F38BF1CEB430F01D28B42704770B5AD
:1027100000F0B2F8922449004FF000514FF080537E
:10272000FFF7D8BDDFF848C170B51CEA111E1EBF07
:102730001CEA13159EEA0C0F95EA0C0F00F06F804F
:1027400081EA030423EA4C134EEAD47E21EA4C11B9
:1027500041F4801143F48013AE44A1FB024CA0FB72
:102760000365AEF17F7E361955EB0C05A1FB034CDA
:102770004CF10003A0FB021C16EB0C06654153F163
:102780000003094218BF46F0010613F4007F0BD185
:102790004FEA03314FEA0530340341EA155140EA6C
:1027A00016506FF003020AE04FEAC3214FEAC5203A
:1027B000F40241EA555140EA56506FF0020202EB32
:1027C0002E4201EB025585EACE710AD05FEA440C35
:1027D00018BF24F0004450F1000041F1000120EA4C
:1027E000D47040F2FE7C624500D270BDA84214BF96
:1027F0004FF080444FF04044002E08BF0024BEF14B
:10280000806FA8BFA1F1C041BDE8704080F2828016
:102810004FF0000001F1C04101F0004170479EEA15
:102820000C0F0CEA131518BF95EA0C0F06D04FF0E9
:10283000000081EA030E0EF0004170BD00F01CF8AC
:102840008900013E00F007B800F009B84FEA430CD8
:102850005FEA5C5C08D081EA030100F05BB84FEAF4
:10286000410C5FEA5C5CF6D14FF000000149704713
:102870000000FF070000F87F0EF1020E2EF0030E9D
:102880005EF8046B364205D4012A43EB030515F5C7
:10289000001F12D8012841EB010C1CF5001F0CD8B9
:1028A0000ED14FEAD17C15F5001F0CEB4C0C0CF14E
:1028B000020C08BF4CEBD37C04E04FF0080C01E0A5
:1028C0004FEAD37C0CEB4C0526FA05F606F007061A
:1028D000B6F1040C06D20EEB860CBDE870404CF04D
:1028E000010C6047DFE80CF0090B02024FF00041D9
:1028F0004FF00000A1F5002170BD194610460128D7
:1029000051EB010418BFD4F5001484BF002001F07E
:10291000004170BD0808A0F500114FEA3101704771
:1029200053EA010C17D41CF5801F58BFBCF5801F5B
:1029300000F106808B4218BF704708BF8242704783
:1029400007D713F5801F58BF11F5801F19D48B428C
:1029500070479B4270471CF5801F08D5BCF5801F4F
:10296000F7D5994218BF704708BF904270474FF49F
:10297000001C1CEB430F38BF1CEB410F01D29942E6
:1029800070470FB40CBC03BCFFF7C1BE91EA030F44
:1029900010B581F000413FF5F5AB83F0004300F046
:1029A00009B8000010B591EA030F48BF83F0004357
:1029B0003FF5E8AB841A71EB030C07D212198CF0C7
:1029C000004C43EB0C03001B61EB0C01DFF8A4E1AE
:1029D0004FEA1154A4EB135C1EEA430F18BF9EEAA2
:1029E000445F00F0B08023EA6E03524221EA0451B2
:1029F000C3EB6E0338BF5B1EDCF1200E25D322FA39
:102A00000CFE10EB0E0043FA0CFE41EB0E01CCF174
:102A1000200E03FA0EFE10EB0E0051F10001CCF176
:102A2000200E29D412FA0EF201EB0451BDE8104039
:102A300058BF7047401C1CBFB2F1004F70470028C0
:102A40000CBF491C20F00100704712EB020E43EB53
:102A5000030218BF4FF0010E4EEA4202ACF1200C07
:102A6000DCF11E0E54D943FA0CFE10EB0E0051F1AE
:102A7000FF31CCF11E0ED5D50EF1010E12FA0EFE6D
:102A8000404141EB010101EB445C5FEA5C5C10D921
:102A900010EBDE7001EB045138BFBEF1004FBDE812
:102AA000104018BF704700280CBF491C20F00100DF
:102AB000704730D24FEAD42C11F5001124F4006491
:102AC0001BD0B1FA81F20B3AA41AA41ED2F1200352
:102AD000914030FA03F31943904001EBCC71002C84
:102AE00001EB0451BDE81040A8BF704701F1C0419F
:102AF0004FF0000001F000417047B0FA80F310FA87
:102B000003F100D110BDE41A173C4805C90AE4E7F7
:102B100001EB045110BD491001EB0451BDE8104018
:102B20004FEA300002E04FF0000170474A0008BF52
:102B30000042F8D0B2F5001F28BF704701F00041F5
:102B40004FF0000070479EEA445F07D011EA5E0F25
:102B5000BDE8104004BF002100207047BDE81040D0
:102B600070B5FFF789FE00BF40DFF63E83F00041FD
:102B7000104670470000E0FF43004FEAD30C4FEAD5
:102B80003C0C43401FBF40070CF1605113F0FE4F57
:102B900070471CF0006F03D100200CF0004170471B
:102BA0000CF0004343EA507010B540EACC0000F04E
:102BB000E9F800BF000000924FEA0001FFF7AABE4B
:102BC0004FF000414FF00000A1F5002170470000D8
:102BD0004FF47F0C1CEAD0121EBF1CEAD11392EAFC
:102BE0000C0F93EA0C0F00F0858090EA010F48BFAC
:102BF00042F4807240F4000C41F400002CF07F415C
:102C000020F07F4000B58142A2EB03020FF2081CC6
:102C1000ACEB504EC0F100009EF800E04FEA4E0EC3
:102C200000FB0EFC38BF49004FEA2C1C02F5FA02EB
:102C30000CFB0EF34FEACE1E4FEA112C4FEAC121D6
:102C40000EEB635E42EB22420EFB0CFC4FEA1C5380
:102C500000FB03114FEA112C4FEA01310EFB0CFC73
:102C60004FEADC4C00FB0C11C14228BF09184CEBA9
:102C700003335DF804EB10EB410143EBC250B2F5B6
:102C80007C0F38BF704729D512F0F00F1CBF00F140
:102C9000C04000F0004070470081828384858687B1
:102CA00088898B8C8D8E8F919293959697999A9C0B
:102CB0009D9FA0A2A3A5A7A8AAACAEB0B2B3B5B77A
:102CC000B9BCBEC0C2C5C7C9CCCED1D4D7D9DCDF50
:102CD000E2E6E9ECF0F3F7FAFE0000004FEA400C00
:102CE0000CF1807CBCF17E4F28BF7047B0F1C04032
:102CF00000F08EB890EA010F0CEAD11348BF42F4FD
:102D00008072624538BF634507D213F47F0F16D037
:102D100080EA010000F00040704710B500F032F882
:102D2000097EFC3E00F005B880EA010000F000409A
:102D3000704780EA010000F0004000F069B812F42A
:102D40007F0F04BF0248704780EA010000F060B8BE
:102D50000000C07F10F0004148BF4042B0FA80F34D
:102D600010FA03F2C3F19D030BD051EAC35101EBFA
:102D70001220530638BF704700F1010008BF20F051
:102D8000010070470EF1020E2EF0030E5EF8044BA8
:102D9000244204D44FEA4102B2F17F4F11D84FEAE6
:102DA0004003B3F17F4F0CD80ED14FEAD07CB2F183
:102DB0007F4F0CEB4C0C0CF1020C08BF4CEBD17CA0
:102DC00004E04FF0080C01E04FEAD17C0CEB4C031F
:102DD00024FA03F404F00704B4F1040C06D20EEB59
:102DE000840CBDE810404CF0010C6047DFE80CF0AB
:102DF000070802024FF00040A0F5800010BD084611
:102E0000420018BFD2F1807288BF00F0004010BDB0
:102E1000FF2141EAD050C00570470CF00F03092B89
:102E200008BF082000F059800A2B0BD0082B18BFD0
:102E3000704708BF1CF0400F0AD04FF000004FF061
:102E4000000170471CF0400F18BF4FF00040704762
:102E50001CF0100F08D020F0704300F07F4242EACF
:102E6000D3014FEA4370704700F0604021F07F4289
:102E700042EA000201F07F4040EA727070474FF072
:102E8000FF0C4CF4E06C1CEA11531CBF9CEA030CD1
:102E90009445C2BFDA4201EB02517047002B0DD0BE
:102EA000BCF1000F0FD0002A01F00041A4BF41F097
:102EB000E04141F07F614FF00000704701F00041B8
:102EC0004FF00000704750EA01334FF09B0C18BFE1
:102ED0004CF0806C7FF4F6A970471CF4801F11D071
:102EE0001CF4E02F03D06FEACC31490070474FF05B
:102EF0004050EFF3008222F0704242EA000282F377
:102F0000008870474FF0000070470000000000008C
:102F10004C5555555555A53F7751C1166CC156BFF7
:102F20009015CB19A001FA3EAD529C804F7E92BE07
:102F3000C4B1B4BD9EEE213ED43888BEE9FAA8BD26
:102F400000004054FB21F93F3163621A61B4D03D67
:102F50000000601A61B4D03D7370032E8A19A33B40
:102F60000000002E8A19A33BC14920259A837B3992
:102F700000000000000000006E83F9A22915444EF5
:102F8000D15727FCC0DD34F5999562DB4190433C75
:102F9000AB6351FE61C5BBDE3A6E24B7E0D24D4251
:102FA000EA2E49061C92D1091CEB1DFE3EA729B151
:102FB000F53582E88444BB2E26709CE9417E5FB4DF
:102FC00039D69139F43953838B5F849C3B28F9BD02
:102FD000FF97F81F0F9805DE8B112FEF1F6D0A5A10
:102FE000CF7E366DB709CB27663F464F2DEA5F9EF1
:102FF000C7BA27757BF1E5EBF739073DEA92528AAC
:10300000B15FFB6B085D8D1FA6F810111111813F98
:10301000D561C119A0012ABF7DFEB157E31DC73E8E
:10302000EB9C2B8AE6E55ABE7CD5CF5A3AD9E53DD2
:103030005030000800000020740000002801000843
:10304000C430000874000020E41E000044010008A1
:1030500000000000F4010000F40100003C0000004A
:103060003C000000640000000100000000000000BF
:10307000FE01000000000000000000000000000051
:10308000010000000000000000000000000000003F
:103090000000000000000000000000000000000030
:1030A0000000000000000000000000000000000020
:1030B00000A24A0400000000000000000102030416
:0430C00006070809EE
:040000050800018965
:00000001FF
