:020000040800F2
:1000000000140020890100089101000893010008F4
:100010009501000897010008990100080000000000
:100020000000000000000000000000009B0100082C
:100030009D010008000000009F010008A1010008C8
:10004000A3010008A3010008A3010008A301000800
:10005000A3010008A3010008A3010008A3010008F0
:10006000A3010008A3010008A3010008A3010008E0
:10007000A3010008A3010008A3010008A3010008D0
:10008000A3010008A301000861020008A301000801
:10009000A3010008A3010008A3010008A3010008B0
:1000A000A3010008A3010008A3010008A3010008A0
:1000B000A3010008A3010008A3010008A301000890
:1000C000A3010008A3010008A3010008A301000880
:1000D000A3010008A3010008A3010008A301000870
:1000E000A3010008A3010008A301000800F002F822
:1000F00000F03AF80AA090E8000C82448344AAF188
:100100000107DA4501D100F02FF8AFF2090EBAE885
:100110000F0013F0010F18BFFB1A43F0010318473B
:100120006028000080280000103A24BF78C878C1F9
:10013000FAD8520724BF30C830C144BF04680C60ED
:10014000704700000023002400250026103A28BF35
:1001500078C1FBD8520728BF30C148BF0B60704739
:100160001FB51FBD10B510BD00F044F81146FFF7D4
:10017000F7FF01F0FBF800F062F803B4FFF7F2FFBD
:1001800003BC00F065F800000948804709480047B3
:10019000FEE7FEE7FEE7FEE7FEE7FEE7FEE7FEE737
:1001A000FEE7FEE704480549054A064B7047000094
:1001B0009D080008ED000008000E0020001400203B
:1001C000001000200010002070477047704710B5E5
:1001D00000F008F8006810BD10B5044600F002F801
:1001E000046010BD00487047A00D00200048704713
:1001F000A00D00207546FFF7F9FFAE4605006946E1
:10020000534620F00700854618B020B5FFF7CAFF17
:10021000BDE820404FF000064FF000074FF0000807
:100220004FF0000B21F00701AC46ACE8C009ACE888
:10023000C009ACE8C009ACE8C0098D46704710B5EC
:100240000446AFF300802046BDE81040FFF795BF9D
:1002500001491820ABBEFEE72600020070470000EF
:1002600010B54FF4A071024800F004F810BD000072
:100270000024014000220A12D3430360704721B1D9
:10028000026842F00102026004E002684FF6FE7369
:100290001A400260704710B50022026847F6F073FA
:1002A0009A430C6A8B6823430C6923434C692343AC
:1002B0008C692343CC6923434C6A23438C6A2343D0
:1002C0001A430260CB6843600B6883604B68C3606D
:1002D00010BD0021016041608160C1600161416128
:1002E0008161C16101624162816270472DE9F04123
:1002F000024600250026002000230024002791F854
:1003000003C00CF00F0591F803C00CF0100CBCF109
:10031000000F03D091F802C04CEA050591F800C027
:10032000BCF1000F31D0146800202BE04FF0010C1D
:100330000CFA00F3B1F800C00CEA03069E4220D18B
:1003400083004FF00F0C0CFA03F7BC4305FA03FCD3
:100350004CEA040491F803C0BCF1280F06D14FF019
:10036000010C0CFA00FCC2F814C00AE091F803C0BA
:10037000BCF1480F05D14FF0010C0CFA00FCC2F89B
:1003800010C0401C0828D1D31460B1F800C0BCF1E3
:10039000FF0F34DD546800202EE000F1080C4FF010
:1003A000010808FA0CF3B1F800C00CEA03069E42FB
:1003B00021D183004FF00F0C0CFA03F7BC4305FA70
:1003C00003FC4CEA040491F803C0BCF1280F05D1EA
:1003D00000F1080C08FA0CF8C2F8148091F803C078
:1003E000BCF1480F07D100F1080C4FF0010808FAE2
:1003F0000CF8C2F81080401C0828CED35460BDE829
:10040000F0810246002093680B400BB1012000E010
:100410000020704741617047016170474FF6FF71DE
:100420000180022181700421C17070470EB5012145
:1004300040F61D0000F074F86846FFF7EFFF10204B
:100440008DF8030041F20900ADF8000003208DF89B
:10045000020069462748FFF749FF48208DF803004E
:100460004FF40060ADF8000003208DF802006946EB
:100470002048FFF73BFF48208DF803004FF4F06061
:10048000ADF8000001208DF8020069461A48FFF718
:100490002DFF10208DF803004FF46040ADF80000F0
:1004A00001208DF8020069461448FFF71FFF02A8DB
:1004B000FFF7B4FF10208DF80B004FF4E060ADF8AB
:1004C000080001208DF80A0002A90A48FFF70EFF74
:1004D00001A8FFF7A3FF10208DF807004FF460403C
:1004E000ADF8040003208DF8060001A90248FFF7CB
:1004F000FDFE0EBD00080140000C0140001001404F
:1005000029B1064A52690243044B5A6104E0034A86
:1005100052698243014B5A6170470000001002404B
:1005200029B1064A92690243044B9A6104E0034AE6
:1005300092698243014B9A617047000000100240AB
:1005400010B5044600211448FFF799FE0021124817
:100550003C38FFF794FE00210F485038FFF78FFE1C
:1005600000210E4800F0DAF90D4804600B492831EB
:100570000C800121094800F0D1F901210648FFF75C
:100580007EFE012104483C38FFF779FE0121024834
:100590005038FFF774FE10BD6C000240002C014083
:1005A0000000002010B500F001F810BD0CB50020CF
:1005B000019000903348006840F480303149086071
:1005C00000BF3048006800F4003000900198401CE3
:1005D0000190009818B90198B0F5A06FF1D12948A1
:1005E000006800F4003010B10120009001E000200C
:1005F00000900098012843D12348006840F0100083
:10060000214908600846006820F003000860084699
:10061000006840F0020008601A48406819494860C4
:100620000846406848600846406840F4806048607A
:100630000846406820F47C1048600846406840F452
:10064000E81048600846006840F08070086000BF0D
:100650000C48006800F000700028F9D00948406894
:1006600020F00300074948600846406840F0020057
:10067000486000BF0348406800F00C000828F9D12A
:100680000CBD0000001002400020024010B54FF4E5
:1006900080411748FFF7C0FE642000F003FE802170
:1006A0001448FFF7AEFE08B1012000E00020124917
:1006B00008704FF461701149086078201049086093
:1006C0004FF07C5000F046FF01F00CF800F026FEE1
:1006D00000F0A6FE00F0DAFE00F00AFF4FF48051B1
:1006E0000848FFF799FE4FF46170FFF729FF10BD2E
:1006F00000100140000C0140180000200000002004
:1007000004000020000801402DE9F04F89B0814627
:10071000B9F1000F65D000BF4FF0000A51480468DE
:1007200059E04FF480615048FFF76BFE50B90AF171
:10073000010A4FF400414D48FFF76EFEBAF1320F47
:100740003EDD4CE04FF400414848FFF763FEB4F54E
:10075000AF6F2EDA204601F09DFE4549009001F072
:10076000BBFD014601904FF07E5001F0B5FD834680
:1007700001F0D0FC3F4A404BCDE9020101F0D6FA2E
:100780003E4A3F4BCDE9040101F040F807463D4A9F
:100790003D4B01F0CBFA054601F006F80146069004
:1007A0004FF07C5000F0A6FD0790079800F0D2FEB5
:1007B00002E0364800F0CEFE3C2094FBF0F004440A
:1007C0002046FFF7BDFE052000F06CFD08213048F3
:1007D000FFF720FE641C40F2DC508442A1DB00BF26
:1007E00000BF0A2000F05EFD00212A48FFF747FD08
:1007F000002128483C38FFF742FD002125485038A9
:10080000FFF73DFD0021244800F088F8FFF70EFEB9
:100810004FF480511E48FFF7FDFD4FF40051124880
:10082000FFF7F8FD4FF480410F48FFF7F3FD4FF459
:1008300000410D48FFF7EEFD012000F033FD4FF4BD
:1008400080711348FFF7E8FD4FF400711048FFF77F
:10085000E3FD4FF480610E48FFF7DEFD09B0BDE80F
:10086000F08F000000000020000C0140001001404B
:100870000080BB44BA490C022B87B63FFCA9F1D2D9
:100880004D62903FC3F5285C8FC2ED3FCDCC4C3D0F
:10089000000801406C000240002C014010B51348D4
:1008A000006840F00100114908600846406810499E
:1008B00008400E494860084600680E4908400B4948
:1008C00008600846006820F48020086008464068F8
:1008D00020F4FE0048604FF41F008860FFF762FEBE
:1008E0004FF000600449086010BD00000010024095
:1008F0000000FFF8FFFFF6FE08ED00E00A884B88D5
:100900001A438B881A43CB881A430B891A434B89A5
:100910001A438B891A43A0F84420704721B10288FA
:1009200042F00102028004E002884FF6FE731A4092
:100930000280704731B1B0F8442042F40042A0F880
:10094000442005E0B0F84420C2F30E02A0F8442091
:1009500070471AB183890B43838102E083898B43FB
:100960008381704770B5002400220023058C4FF668
:10097000FE7635400584028C8388048B4FF68F7594
:100980002C40B51E2C400D882C43751E2A400D8925
:100990002A434D882A43144DA8420BD0134DA84238
:1009A00008D0134DA84205D0124DA84202D0124DD6
:1009B000A84213D14FF6F7752A404D892A434FF6C6
:1009C000FB752A408D882A434FF6FF652B404FF672
:1009D000FF552B408D892B43CD892B438380048386
:1009E000CD888586028470BD002C01400034014012
:1009F0000040014000440140004801400A460021F7
:100A0000018B4FF6F77319401143018370470000C3
:100A100070B5002400220023058C4FF6EF76354098
:100A20000584028C8388048B48F6FF752C404FF6B2
:100A3000FF452C400D884FF6FF7606EA05252C432E
:100A40004FF6DF752A400D8906EA05152A434D88C1
:100A500006EA05152A43154DA84202D0144DA842B6
:100A60001DD14FF67F752A404D894FF6FF7606EA75
:100A700005152A434FF6BF752A408D8806EA0515ED
:100A80002A434FF6FF352B404FF2FF752B408D89DF
:100A900006EA85052B43CD8906EA85052B4383802D
:100AA0000483CD880587028470BD0000002C0140BE
:100AB000003401400A460021018B4FF2FF731940B8
:100AC0004FF6FF7303EA02231943018370470000C6
:100AD00070B5002400220023058C4FF6FF663540D8
:100AE0000584028C8388848B4FF68F752C404FF6DB
:100AF000FC752C400D882C434FF6FF552A400D897C
:100B00004FF6FF7606EA05252A434D8806EA0525B5
:100B10002A43154DA84202D0144DA8421DD14FF2D0
:100B2000FF752A404D894FF6FF7606EA05252A43D0
:100B30004FF6FF352A408D8806EA05252A434EF6F2
:100B4000FF752B404DF6FF752B408D8906EA051584
:100B50002B43CD8906EA05152B4383808483CD88FA
:100B60008587028470BD0000002C014000340140E4
:100B70000A460021818B4FF6F77319401143818398
:100B800070470000002202881D4B98420ED01D4B7A
:100B900098420BD0B0F1804F08D01B4B984205D043
:100BA0001A4B984202D01A4B984204D14FF68F73D9
:100BB0001A404B881A43174B984207D0164B98425D
:100BC00004D04FF6FF431A40CB881A4302808B882B
:100BD00083850B8803850A4B98420BD0094B9842BA
:100BE00008D00E4B984205D00D4B984202D00D4BC9
:100BF000984201D10B7A038601238382704700005B
:100C0000002C014000340140000400400008004076
:100C1000000C004000100040001400400040014063
:100C200000440140004801404FF6FF7181800021DF
:100C30000180C180418001727047490050EAC120A3
:100C400018BF04204A0D18BF40F0010040F2FF72A7
:100C5000B2EB515F08BF40F00200012808BF052039
:100C6000704700002DE9F74F144694B00021C4E905
:100C700002111599079121F00045C9498D4206DC02
:100C80001599C4E9000117B00020BDE8F08FC549EF
:100C9000DFF814A3A9423CDD0799C44E0029C44FD4
:100CA000C44A1599534619DD01F04AF9554506D055
:100CB000C14AC24B01F044F9C4E900010AE04FF017
:100CC000D352BE4B01F03CF932463B4601F038F9B5
:100CD000C4E9000117B00120BDE8F08F00F096FDD7
:100CE000554506D0B44AB54B00F090FDC4E900016B
:100CF0000AE04FF0D352B14B00F088FD32463B463C
:100D000000F084FDC4E9000117B04FF0FF30BDE8EA
:100D1000F08FAB49A942159978DB21F00041834659
:100D20008846A84AA84B01F001F80022A74B00F022
:100D30006DFD00F073FF099000F0CDFF06460F46F1
:100D40009C4A534600F0F2FF43465A4601F0ECF845
:100D500080468A46984A994B3046394600F0E6FF6D
:100D60002A0D01250B924246534601F0DDF8032D72
:100D7000C4E9000139D00B98C1F30A51401A05EBC0
:100D800045111139814230DA9148C346784400EB6D
:100D90000510CDF80CA00C90D0E900233046394660
:100DA00000F0C4FF02460B46049106905846039992
:100DB00001F0C6F880468A4602460B46584603991B
:100DC00001F0BEF8049B069A01F0BAF883460C982D
:100DD00003913946D0E90223304600F0A7FF5A4676
:100DE000039B01F0ADF86D1CBDE707980028A2BF7A
:100DF000099817B0BDE8F08F616881F0004161602B
:100E0000099817B04042BDE8F08FFFE78446159877
:100E1000C1F31301C0F30A50A0F2F5304FEA601895
:100E200000F01F06C6F120001390002006900790E6
:100E300041F4801E05206D4676B1664A08EB00013C
:100E40007A4452F8213002EB8101B3404A68139989
:100E500022FA01F1194305E05F4908EB00027944E9
:100E600051F82210A1FB0E27A1FB0C131A449A4241
:100E700034BF0123002303EB070A05EB8003D3E90A
:100E800001B70F448F4234BF0121002193448B44AA
:100E900011B1934502D903E0934501D2012100E04D
:100EA0000021C3E901B7514445F82010011EA0F10B
:100EB0000100C1DC0298059F00F10050800F1290E4
:100EC0000298DDE90356800000F005FF83462846BE
:100ED0000D9100F017FF6FF01D0201F07AFCCDE9D3
:100EE0000E01304600F00EFF6FF03D0201F071FC84
:100EF00080468A46384600F005FF6FF05D0201F03B
:100F000068FC074642465346119100F07FFCDDE93C
:100F10000E2300F07BFC5A460D9B00F077FC002569
:100F20000E465A4628460D9B01F00AF8DDE90E23CD
:100F300001F006F84246534601F002F83A46119B8A
:100F400000F0F2FFDFF898A0244A534600F0EEFECE
:100F500007468846234A244B3146284600F0E6FEE1
:100F60003A46434600F052FC074688464FF0A842F6
:100F700053463146284600F0D9FE3A46434600F033
:100F800045FC159A12F0004F04D0129A81F00041EE
:100F900052421292C4E90001129817B0BDE8F08FD6
:100FA000FB21E93F7CD90240FB21F93F7370032EFE
:100FB0008A19A33B000040543163621A61B4D03DEA
:100FC000FB21394183C8C96D305FE43F0000E03F39
:100FD000001B00007C1A00005E1A0000182D44540B
:100FE000FB21F93D3326A611460B113C2DE9FF4D9F
:100FF00021F0004807460C46B8F1795F08DA00F0A6
:101000000DFE002801BF0020324904B0BDE8F08D7C
:101010003A4623461046194600F088FE0546024629
:101020002D480E460B460621784400F05DF82A460E
:10103000334600F07BFEDDE9022382468B463846CC
:10104000214600F073FE04460F4652465B46284692
:10105000314600F06BFE22463B4600F071FF07462A
:101060008A464FF0FF322846314601F0B2FB1B4A58
:1010700090450ADA3A46534600F062FF04B0002277
:10108000BDE8F04D134B00F04FBF154A4245A8BFD5
:10109000A8F500154FF00004B8BF124D22462B46AC
:1010A00000F04EFF0646884622462B46002009499E
:1010B00000F046FF04460D463A4653463046414648
:1010C00000F03EFF04B022462B46BDE8F04D00F094
:1010D0002BBF00000000F03F341800003333D33F33
:1010E0000000E93F0000D23F2DE9F0414F1E00EB28
:1010F000C7010446D1E9000115461E4637F0060235
:101100000DD02A46334600F011FE7F1E04EBC703C4
:10111000D3E9002300F07AFB37F00602F1D1022F69
:1011200025D0042F13D0062F18BFBDE8F0812A4622
:10113000334600F0FBFDD4E90A2300F067FB2A46A2
:10114000334600F0F3FDD4E9082300F05FFB2A46A4
:10115000334600F0EBFDD4E9062300F057FB2A46A6
:10116000334600F0E3FDD4E9042300F04FFB2A46A8
:10117000334600F0DBFDD4E9022300F047FB2A46AA
:10118000334600F0D3FDD4E90023BDE8F04100F080
:101190003DBB00002DE9FF4D054621F0004084B025
:1011A0000C46B0F1795F0BDA2846FFF746FD0428BC
:1011B00008BF00F06FF8284608B02146BDE8F08D62
:1011C0002A460B46104600F0B1FD06460F462A4659
:1011D000234600F0ABFD804626488A4632463B4611
:1011E00005217844FFF780FF83461098029160B391
:1011F000214A224B4046514600F098FDCDE90001BE
:101200005A4640465146029B00F090FD8246884671
:10121000DDE906014FF0FF3201F0DBFA52464346AA
:1012200000F08EFE32463B4600F080FDDDE90623ED
:1012300000F086FEDDE9002300F082FE08B02A46B9
:101240002346BDE8F04D00F06FBE0B465A463046CF
:10125000394600F06BFD084A084B00F0D7FA4246C9
:10126000534600F063FD08B02A462346BDE8F04D22
:1012700000F0CCBA72170000495555555555C5BFF9
:10128000012201F0A6BA002213461046114600F0D2
:101290006DBB0000024A0020110701F09ABA00005D
:1012A00001FDFFFF104A12684FF47A73B2FBF3F2AC
:1012B00002FB00F10D4A126842F080720B4B1A607B
:1012C00000220B4B5A601A46126842F001021A6063
:1012D00000BF074A52688A42FBD3054A126822F0CF
:1012E0000102034B1A6070471C000020FCED00E077
:1012F000001000E070B50C46054600F0C2FF00F09B
:101300007040B0F1004F07D024F00040C0F1FF4022
:10131000C00F04BF204670BD284670BD1CB501A893
:10132000FFF77CF818208DF807004FF4E060ADF867
:10133000040001208DF8060001A90A48FEF7D6FF37
:101340006846FFF76BF84FF46040ADF800001820D6
:101350008DF8030001208DF8020069460248FEF76F
:10136000C5FF1CBD00080140000C01400020FFF734
:10137000CBF9FFF78BF902E06420FFF793FFFBE75F
:1013800000B5254B21F0004287B09A4203DC0022D1
:10139000134600922BE0214B9A4208D140B94FF0FE
:1013A0000100FEF719FFFFF76EFF07B000BD03DB7A
:1013B000FFF766FF07B000BD02AAFFF753FC10F06D
:1013C00003014FF001000DD0012914D002291AD0D9
:1013D0000DF1080C9CE80F00FFF708FE07B081F044
:1013E000004100BD0DF1080C00909CE80F00FFF7D4
:1013F000D1FE07B000BD0DF1080C9CE80F00FFF70F
:10140000F5FD07B000BD0DF1080C00909CE80F0041
:10141000FFF7C0FEE2E70000FB21E93F0000F07F9C
:1014200000B58BB001210846FFF76AF86846FEF761
:1014300050FF12480090124801901020029011486D
:1014400000680390002004908020059040000690E2
:1014500080000790202008900002099069460A4801
:10146000FEF719FF01210848FEF709FF012251028A
:1014700002483438FFF76DFA0BB000BD342C014040
:10148000A8050020040000201C00024000B58BB01D
:101490006846FEF71EFF1248009012480190102087
:1014A000029011480068039000200490802005906D
:1014B00040000690800007902020089000020990CC
:1014C00069460A48FEF7E7FE01210848FEF7D7FE05
:1014D0000122910202483838FFF73BFA0BB000BDF9
:1014E000382C014050080020040000203000024049
:1014F00000B58BB06846FEF7ECFE1248009012482B
:101500000190102002901148006803900020049080
:1015100080200590400006908000079020200890D1
:101520000002099069460A48FEF7B5FE0121084805
:10153000FEF7A5FE0122D10202483C38FFF709FA66
:101540000BB000BD3C2C0140F80A00200400002034
:101550006C0002402DE9F04F8DB0834600200C90C6
:101560005548007808B1002500E0544DDFF850A13F
:101570005148007808B1514E00E0002651495846C4
:1015800000F0B4FF044600F069FF0C9000248BE0EB
:101590004D48006800F07EFF0B90204600F092FF5F
:1015A00080464FF0804100F0A1FF07460B9900F004
:1015B00093FE81462946484600F0D8FD019000F090
:1015C000A9FD424A424BCDE9020100F0AFFB0746BC
:1015D000FFF7D6FE00223F4BCDE9040100F016F9DB
:1015E000CDE908010C9800F076FBCDE90601DDE9B4
:1015F000082300F09BFBCDE90A0100F03FFB3649D0
:1016000021F814005146484600F0B0FD019000F06A
:1016100081FD07462D4A2E4B00F088FBCDE90201E3
:10162000FFF7AEFE00222B4BCDE9040100F0EEF8EF
:10163000CDE908010C9800F04EFBCDE90601DDE98B
:10164000082300F073FBCDE90A0100F017FB2349E2
:1016500021F814003146484600F088FD019000F062
:1016600059FD1A4A1A4BCDE9020100F05FFBCDE9A2
:101670000401FFF785FE07460022164B00F0C6F86E
:10168000CDE908010C9800F026FBCDE90601DDE963
:10169000082300F04BFBCDE90A0100F0EFFA1049F6
:1016A00021F81400601C84B2074800688442FFF6E9
:1016B0006FAF0DB0BDE8F08F18000020ABAAAA3FB5
:1016C000ABAA2A3F00006442040000206E861BF093
:1016D000F92109400000F03FA80500205008002033
:1016E000F80A002000B58BB008A8FFF79DFA2C4837
:1016F000008880B2ADF820000020ADF8220039202B
:10170000ADF824000020ADF8260008A92548FFF711
:1017100039FA6020ADF810000120ADF81200042065
:10172000ADF8140004A91F48FFF71CF908211D4853
:10173000FFF764F904A91B48FFF76AF90821194863
:10174000FFF7B8F904A91748FFF7C2F908211548AF
:10175000FFF70EFA01211348FFF7E0F801211148C5
:10176000FFF7E8F84FF40060ADF800004010ADF866
:1017700002008010ADF80400FE20ADF80600002045
:10178000ADF808004FF40050ADF80A004000ADF885
:101790000C0069460348FFF7B1F80BB000BD00002C
:1017A00000000020002C014021F00042A2F1605214
:1017B000B2F5801F01F0004328BFD2F17F6C0BD936
:1017C0005FEA001C43EAC20242EB507018BF704748
:1017D00028BF20F001007047B2F5801FBCBF18463B
:1017E00070474FEA410C1CF5001F02D2084600F07A
:1017F00044BF70B500F044FB00000089FFF7F6BF5E
:101800004FF00040A0F580007047000010B591EA4D
:10181000030F48BF83F0004300F19A83841A71EBF1
:10182000030C05D2121943EB0C03001B61EB0C01F6
:10183000DFF824E14FEA1154A4EB135C1EEA430FD6
:1018400018BF9EEA445F73D023EA0E03DCF1200E3A
:1018500021EA045143F4801332D322FA0CFE10EB38
:101860000E0023FA0CFE41EB0E01CCF1200E03FA20
:101870000EFE10EB0E0051F10001B1F5801FCCF10E
:10188000200E32D201EB045112FA0EF2BDE81040E4
:1018900058BF7047401C38BF5FEA420218BF70470C
:1018A000002814BF20F0010041F100014FEA41037C
:1018B00013F5001F38BF7047A1F1C04100F02EBBE7
:1018C000012A43EB0302ACF1200CDCF11F0E32BF06
:1018D0004FF0000E23FA0CF310EB030041EB045120
:1018E000B4EB115FD0D0A1EB045101F58011490890
:1018F0005FEA300001EB04510ED350F1000038BF15
:1019000012FA0EFE08D1BDE81040C9E7401C38BFEE
:101910005FEA4202CAD1C3E7BDE810404FEA410383
:1019200013F5001F38BF7047A1F1C04100F0F6BAAF
:101930009EEA445F08D011EA5E0FBDE8104004BF84
:1019400001F0004100207047BDE8104070B500F084
:1019500097FA00BF64FBBE3E0000E0FF02494FF073
:10196000000000F004BF00BF0000F87F2DE9C04177
:1019700030B4DFF8A0C23CEA111418BF3CEA1314DB
:1019800000F0EC8081EA03051CEA111444EAD574E6
:1019900018BF1CEA131500F0C780A4EB05044FF034
:1019A000004545EAC12145EAC32341EA505143EAD3
:1019B000525304F17F74994204F500344FEAC02079
:1019C0004FEAC22208BF904200F09C804FEA1365A4
:1019D0000FF24016765D4FEA134506FB05F7C7F197
:1019E000807706FB07F74FEAD737A7FB03687642F5
:1019F000C8F58038A7FB06CE38BFA8F1010807FB61
:101A000008E64FF0000EA6FB028CE6FB03CEDCF1ED
:101A1000000CCEF1004E38BFAEF1010EA6FB0C5803
:101A20004FF000074FF00005E6FB0E87A1FB08C64C
:101A3000A0FB07CE16EB0E0645F10005E1FB07659E
:101A400015F1E04E7EBFA4F580345FEA46066D4195
:101A500016F1800745F100054FEA17274FEA0666A1
:101A600047EA0567A6F1DE46B6F1805F4FEA152525
:101A70001FD9384624F0010C05EBC471BCF1FE6F90
:101A800001EB0C1102D8F0BCBDE8008124425CBF20
:101A900001F5801E9EEAC47F02D4F0BCBDE800813F
:101AA000244238D4F0BCA1F1C041BDE8004100F0AF
:101AB00035BA4FEAD22242EA43524FEAD323A7FB78
:101AC00002864FEAD02040EA415007FB03661EEA37
:101AD0000E0F4FEAD12105FB026658BFA6EB005658
:101AE000B6EB00564FEA520E4EEAC37E18EB0E0ECE
:101AF00056EB530EBDD518EB02085E417F1C55F125
:101B00000005B6E74FF480154FF000074FF00006D0
:101B10004FF00008ADE7F0BC4FF0000001F1C0410C
:101B200001F00041BDE8008111EA0C1F0CEA131519
:101B300000D00CE013EA0C1F00F025804FF00000ED
:101B4000F0BC81EA030101F00041BDE80081F0BC76
:101B5000BDE8004181EA030100F0E0B9F0BCBDE856
:101B6000004170B500F08CF9097EFC3E00F007B82A
:101B700081EA03014FF0000001F00041704781EA63
:101B8000030100F0CBB9F0BCBDE800414FF000000C
:101B900021497047FFFDFBF9F7F5F4F2F0EEEDEBAC
:101BA000E9E8E6E4E3E1E0DEDDDBDAD8D7D5D4D35B
:101BB000D1D0CFCDCCCBCAC8C7C6C5C4C2C1C0BFA7
:101BC000BEBDBCBBBAB9B8B7B6B5B4B3B2B1B0AFAD
:101BD000AEADACABAAA9A8A8A7A6A5A4A3A3A2A191
:101BE000A09F9F9E9D9C9C9B9A999998979796954C
:101BF00095949393929191908F8F8E8E8D8C8C8BE8
:101C00008B8A89898888878786858584848383826F
:101C1000828181800000FF070000F87F4FEA4103C6
:101C20004FEA5353A3F58063D3F11E03C8BFD3F12A
:101C3000210C0CDD4FF0004242EAC12242EA505230
:101C400032FA03FC8CEAE17CACEBE1707047102BBC
:101C5000C4BF0020704703F5787CBCF1FF3F04D07F
:101C60006FF0004282EA2100704770B500F008F979
:101C70004992248000207047F2E700004FEA115398
:101C8000A3F58063D3F11E03A8BFD3F1200C08DBBA
:101C90004FF0004242EAC12252EA505232FA03F0B7
:101CA000704709420BD4102BC4BF0020704703F5C6
:101CB000787CBCF1FF3F05D04FF0FF3070474FF00C
:101CC0000000704770B500F0DBF800BF4992248037
:101CD00000207047F0E710F0004248BF4042B0FAE1
:101CE00080F310FA03F10AD0C3F11D0303F58063FA
:101CF0004FEA415002EB035202EBD12170474FF003
:101D000000007047B0FA80F310FA03F10AD0C3F173
:101D10001D0303F580634FEA41504FEA035202EB83
:101D2000D12170474FF0000070470000DFF848C134
:101D300070B51CEA111E1EBF1CEA13159EEA0C0F9B
:101D400095EA0C0F00F06F8081EA030423EA4C133C
:101D50004EEAD47E21EA4C1141F4801143F4801301
:101D6000AE44A1FB024CA0FB0365AEF17F7E3619A9
:101D700055EB0C05A1FB034C4CF10003A0FB021C2E
:101D800016EB0C06654153F10003094218BF46F0FB
:101D9000010613F4007F0BD14FEA03314FEA0530FF
:101DA000340341EA155140EA16506FF003020AE08D
:101DB0004FEAC3214FEAC520F40241EA555140EAF7
:101DC00056506FF0020202EB2E4201EB025585EAFB
:101DD000CE710AD05FEA440C18BF24F0004450F1E1
:101DE000000041F1000120EAD47040F2FE7C62451F
:101DF00000D270BDA84214BF4FF080444FF0404461
:101E0000002E08BF0024BEF1806FA8BFA1F1C04121
:101E1000BDE8704080F282804FF0000001F1C041C7
:101E200001F0004170479EEA0C0F0CEA131518BF31
:101E300095EA0C0F06D04FF0000081EA030E0EF079
:101E4000004170BD00F01CF88900013E00F007B8A9
:101E500000F009B84FEA430C5FEA5C5C08D081EA05
:101E6000030100F05BB84FEA410C5FEA5C5CF6D11D
:101E70004FF00000014970470000FF070000F87FA5
:101E80000EF1020E2EF0030E5EF8046B364205D4FE
:101E9000012A43EB030515F5001F12D8012841EB79
:101EA000010C1CF5001F0CD80ED14FEAD17C15F5A2
:101EB000001F0CEB4C0C0CF1020C08BF4CEBD37C5C
:101EC00004E04FF0080C01E04FEAD37C0CEB4C052A
:101ED00026FA05F606F00706B6F1040C06D20EEB5C
:101EE000860CBDE870404CF0010C6047DFE80CF058
:101EF000090B02024FF000414FF00000A1F5002154
:101F000070BD19461046012851EB010418BFD4F5E5
:101F1000001484BF002001F0004170BD0808A0F546
:101F200000114FEA3101704791EA030F10B581F0BB
:101F300000413FF573AC83F0004300F009B80000A6
:101F400010B591EA030F48BF83F000433FF566AC3C
:101F5000841A71EB030C07D212198CF0004C43EB7E
:101F60000C03001B61EB0C01DFF8A4E14FEA1154F4
:101F7000A4EB135C1EEA430F18BF9EEA445F00F017
:101F8000B08023EA6E03524221EA0451C3EB6E0390
:101F900038BF5B1EDCF1200E25D322FA0CFE10EBBD
:101FA0000E0043FA0CFE41EB0E01CCF1200E03FAB9
:101FB0000EFE10EB0E0051F10001CCF1200E29D4E1
:101FC00012FA0EF201EB0451BDE8104058BF704701
:101FD000401C1CBFB2F1004F704700280CBF491CC9
:101FE00020F00100704712EB020E43EB030218BF12
:101FF0004FF0010E4EEA4202ACF1200CDCF11E0E55
:1020000054D943FA0CFE10EB0E0051F1FF31CCF124
:102010001E0ED5D50EF1010E12FA0EFE404141EB17
:10202000010101EB445C5FEA5C5C10D910EBDE70EF
:1020300001EB045138BFBEF1004FBDE8104018BF9E
:10204000704700280CBF491C20F00100704730D2B7
:102050004FEAD42C11F5001124F400641BD0B1FA1E
:1020600081F20B3AA41AA41ED2F12003914030FA57
:1020700003F31943904001EBCC71002C01EB0451A8
:10208000BDE81040A8BF704701F1C0414FF000000B
:1020900001F000417047B0FA80F310FA03F100D16B
:1020A00010BDE41A173C4805C90AE4E701EB0451E6
:1020B00010BD491001EB0451BDE810404FEA30005B
:1020C00002E04FF0000170474A0008BF0042F8D01C
:1020D000B2F5001F28BF704701F000414FF000002B
:1020E00070479EEA445F07D011EA5E0FBDE81040DA
:1020F00004BF002100207047BDE8104070B5FFF715
:10210000BFFE00BF40DFF63E83F00041104670473F
:102110000000E0FF43004FEAD30C4FEA3C0C434081
:102120001FBF40070CF1605113F0FE4F70471CF0C9
:10213000006F03D100200CF0004170470CF0004309
:1021400043EA507010B540EACC0000F050FA00BFEE
:10215000000000924FEA0001FFF7E0BE4FF000419F
:102160004FF00000A1F500217047000090EA010F38
:1021700048BF81F0004100F18C82421A3CBF801AB6
:1021800089184FEAD0524FF07F4C1CEA410FA2EB66
:10219000D15318BF9CEA026F00F03B804FF0004C17
:1021A0004CEA00204CEA012121FA03FC10EB0C0C54
:1021B0001ED202F1FF325FEA1C2040EBC25038BF52
:1021C00070471CF07F0F4FEA400C18BFBCF17F4FE7
:1021D00038BF7047C3F12003994008BF20F00100C9
:1021E000BCF17F4F38BF7047A0F1C04000F045BA46
:1021F0004FEA3C00000A40EBC25028BF1CF0FF0F22
:102200004FEA400CE6D018BFBCF17F4F38BF704793
:10221000EAE79CEA026F05D010EA5C0F08BF00F005
:102220000040704710B500F0E2F900BF64FBBE3E0D
:1022300050EA010C00F113801CF5000F58BFBCF5EB
:10224000000F01D48842704707D710F5000F58BF20
:1022500011F5000F22D488427047894270471CF55F
:10226000000F04D5BCF5000FF7D5814270474FF041
:10227000807C1CEB400F38BF1CEB410F0ED281421B
:10228000704710B5FFF7D4FFEFF3008020F0104047
:1022900038BF40F0004080F3008810BDBDE810401A
:1022A00010B500F0A4F900BF0000000900F007B865
:1022B0004FF0404010F1004FEFF3008070474010A6
:1022C00058BFC0F14040491058BFC1F14041814260
:1022D000EFF30080704700004FF47F0C1CEAD0122F
:1022E0001EBF1CEAD11392EA0C0F93EA0C0F00F008
:1022F000858090EA010F48BF42F4807240F4000CE0
:1023000041F400002CF07F4120F07F4000B5814275
:10231000A2EB03020FF2081CACEB504EC0F1000020
:102320009EF800E04FEA4E0E00FB0EFC38BF49005D
:102330004FEA2C1C02F5FA020CFB0EF34FEACE1EFC
:102340004FEA112C4FEAC1210EEB635E42EB2242B1
:102350000EFB0CFC4FEA1C5300FB03114FEA112C3F
:102360004FEA01310EFB0CFC4FEADC4C00FB0C1178
:10237000C14228BF09184CEB03335DF804EB10EBA6
:10238000410143EBC250B2F57C0F38BF704729D5ED
:1023900012F0F00F1CBF00F1C04000F00040704789
:1023A000008182838485868788898B8C8D8E8F912E
:1023B0009293959697999A9C9D9FA0A2A3A5A7A852
:1023C000AAACAEB0B2B3B5B7B9BCBEC0C2C5C7C97E
:1023D000CCCED1D4D7D9DCDFE2E6E9ECF0F3F7FAE2
:1023E000FE0000004FEA400C0CF1807CBCF17E4FF7
:1023F00028BF7047B0F1C04000F03FB990EA010F2C
:102400000CEAD11348BF42F48072624538BF63457D
:1024100007D213F47F0F16D080EA010000F00040CD
:10242000704710B500F0E3F8097EFC3E00F005B8F7
:1024300080EA010000F00040704780EA010000F0EF
:10244000004000F01AB912F47F0F04BF0248704731
:1024500080EA010000F011B90000C07F41000B0EBE
:10246000D3F19E0208D950F400034FEA032323FA64
:1024700002F048BF4042704710B500F0B8F800BF06
:1024800049922480002070476FF0004282EA2000C9
:102490007047000010F0004148BF4042B0FA80F39E
:1024A00010FA03F2C3F19D030BD051EAC35101EBC3
:1024B0001220530638BF704700F1010008BF20F01A
:1024C00001007047B0FA80F310FA03F2C3F19D03E4
:1024D0000AD0D90501EB1220530638BF704700F12E
:1024E000010008BF20F00100704700004FF47F0C8E
:1024F0001CEAD0121EBF1CEAD11392EA0C0F93EA19
:102500000C0F00F0478090EA010F48BF42F4807240
:102510004FF0004C4CEA00204CEA012102EB030290
:10252000A0FB0113A2F50002002918BF43F001032C
:102530005B0028BF4FEA330342EB22425FEA132CD1
:102540004CEBC2502EBFBCEB436FB2F57C0F704713
:102550004FEA036CBCF1004F08BF20F00100B2F558
:102560007C0F38BF70470BD582F0FF0212F5803F19
:10257000C8BF704700F1C040D8BF00F000407047AE
:1025800000F5000C5FEA4C0C48BF7047B0F1C0404A
:1025900000F073B890EA010F0CEAD11348BF42F47F
:1025A0008072624538BF634504D280EA010000F0C2
:1025B0000040704710B500F01AF800BF8900013ED6
:1025C00000F007B800F009B85FEA410C5FEA1C6C44
:1025D00008D080EA010000F050B85FEA400C5FEAE2
:1025E0001C6CF6D14FF00040A0F5800070470EF152
:1025F000020E2EF0030E5EF8044B244204D44FEA80
:102600004102B2F17F4F11D84FEA4003B3F17F4F3F
:102610000CD80ED14FEAD07CB2F17F4F0CEB4C0CB2
:102620000CF1020C08BF4CEBD17C04E04FF0080C1D
:1026300001E04FEAD17C0CEB4C0324FA03F404F0E4
:102640000704B4F1040C06D20EEB840CBDE8104074
:102650004CF0010C6047DFE80CF0070802024FF075
:102660000040A0F5800010BD0846420018BFD2F11E
:10267000807288BF00F0004010BDFF2141EAD050B9
:10268000C005704790EA010F48BF81F000413FF557
:1026900074AD421A04D882F00042A0EB020011444B
:1026A0004FEAD0524FF07F4C1CEA410FA2EBD153BE
:1026B00018BF9CEA026F4AD04FF0004C4CEA002051
:1026C0004CEA012121FA03FCB0EB0C0C0FD412F000
:1026D000FE0F36D05FEA4C001DD5001240EBC25011
:1026E00038BF70471CF03F0F18BF70470BE0A2F1D6
:1026F00001025FEA1C2040EBC25038BF70471CF05B
:102700007F0F18BF7047C3F12003994014BF401ECC
:1027100020F00100704780084FEA122308BF70477D
:10272000B0FA80FCA2EB0C02CCF1280C60FA0CF0A1
:1027300093EA122F04BF00EBC25070474FEAC370F8
:102740007047130A5FEADC1008BF7047F6E79CEA9F
:10275000026F04D010EA5C0F08BF0020704710B56C
:10276000FFF745FF40DFF63E81F0004070470CF078
:102770000F03092B08BF082000F059800A2B0BD04B
:10278000082B18BF704708BF1CF0400F0AD04FF04D
:1027900000004FF0000170471CF0400F18BF4FF0D1
:1027A000004070471CF0100F08D020F0704300F07C
:1027B0007F4242EAD3014FEA4370704700F0604025
:1027C00021F07F4242EA000201F07F4040EA72704D
:1027D00070474FF0FF0C4CF4E06C1CEA11531CBF27
:1027E0009CEA030C9445C2BFDA4201EB02517047E8
:1027F000002B0DD0BCF1000F0FD0002A01F00041DA
:10280000A4BF41F0E04141F07F614FF0000070470C
:1028100001F000414FF00000704750EA01334FF0E3
:102820009B0C18BF4CF0806C7FF498A870471CF488
:10283000801F11D01CF4E02F03D06FEACC31490087
:1028400070474FF04050EFF3008222F0704242EAAE
:10285000000282F3008870474FF0000070470000CC
:102860004C5555555555A53F7751C1166CC156BFAE
:102870009015CB19A001FA3EAD529C804F7E92BEBE
:10288000C4B1B4BD9EEE213ED43888BEE9FAA8BDDD
:1028900000004054FB21F93F3163621A61B4D03D1E
:1028A0000000601A61B4D03D7370032E8A19A33BF7
:1028B0000000002E8A19A33BC14920259A837B3949
:1028C00000000000000000006E83F9A22915444EAC
:1028D000D15727FCC0DD34F5999562DB4190433C2C
:1028E000AB6351FE61C5BBDE3A6E24B7E0D24D4208
:1028F000EA2E49061C92D1091CEB1DFE3EA729B108
:10290000F53582E88444BB2E26709CE9417E5FB495
:1029100039D69139F43953838B5F849C3B28F9BDB8
:10292000FF97F81F0F9805DE8B112FEF1F6D0A5AC6
:10293000CF7E366DB709CB27663F464F2DEA5F9EA7
:10294000C7BA27757BF1E5EBF739073DEA92528A62
:10295000B15FFB6B085D8D1FA6F810111111813F4F
:10296000D561C119A0012ABF7DFEB157E31DC73E45
:10297000EB9C2B8AE6E55ABE7CD5CF5A3AD9E53D89
:10298000A0290008000000203000000028010008F5
:10299000D029000830000020D013000044010008B6
:1029A0002C010000540100000000000000000000A5
:1029B00000000000000000000000000000A24A0427
:1029C00000000000000000000102030406070809DF
:040000050800018965
:00000001FF
