:020000040800F2
:1000000000140020890100089101000893010008F4
:100010009501000897010008990100080000000000
:100020000000000000000000000000009B0100082C
:100030009D010008000000009F010008A1010008C8
:10004000A3010008A3010008A3010008A301000800
:10005000A3010008A3010008A3010008A3010008F0
:10006000A3010008A3010008A3010008A3010008E0
:10007000A3010008A3010008A3010008A3010008D0
:10008000A3010008A301000861020008A301000801
:10009000A3010008A3010008A3010008A3010008B0
:1000A000A3010008A3010008A3010008A3010008A0
:1000B000A3010008A3010008A3010008A301000890
:1000C000A3010008A3010008A3010008A301000880
:1000D000A3010008A3010008A3010008A301000870
:1000E000A3010008A3010008A301000800F002F822
:1000F00000F03AF80AA090E8000C82448344AAF188
:100100000107DA4501D100F02FF8AFF2090EBAE885
:100110000F0013F0010F18BFFB1A43F0010318473B
:10012000E033000000340000103A24BF78C878C1E2
:10013000FAD8520724BF30C830C144BF04680C60ED
:10014000704700000023002400250026103A28BF35
:1001500078C1FBD8520728BF30C148BF0B60704739
:100160001FB51FBD10B510BD00F044F81146FFF7D4
:10017000F7FF01F0AFFD00F062F803B4FFF7F2FF04
:1001800003BC00F065F800000948804709480047B3
:10019000FEE7FEE7FEE7FEE7FEE7FEE7FEE7FEE737
:1001A000FEE7FEE704480549054A064B7047000094
:1001B0001D100008ED000008000E002000140020B3
:1001C000001000200010002070477047704710B5E5
:1001D00000F008F8006810BD10B5044600F002F801
:1001E000046010BD00487047A00D00200048704713
:1001F000A00D00207546FFF7F9FFAE4605006946E1
:10020000534620F00700854618B020B5FFF7CAFF17
:10021000BDE820404FF000064FF000074FF0000807
:100220004FF0000B21F00701AC46ACE8C009ACE888
:10023000C009ACE8C009ACE8C0098D46704710B5EC
:100240000446AFF300802046BDE81040FFF795BF9D
:1002500001491820ABBEFEE72600020070470000EF
:1002600070B54FF4A071364800F0B8F8012865D198
:10027000334800F0A6F8044632483349096840F88C
:10028000214031480068401C2F490860084600683A
:10029000642801D1002008600024002004E02949DE
:1002A00051F820100C44401C6428F8DB642094FBB7
:1002B000F0F440F64E40844202DD00F0F3F937E0FE
:1002C00040F65430844204DD0821204800F092FAC0
:1002D0002EE0204602F04BFA05461D4A1D4B02F067
:1002E000ABFB05D24FF480411B4800F083FA1FE0BE
:1002F000642C0EDD204602F03AFA0546174A184BE8
:1003000002F060FA05D24FF48041134800F070FA11
:100310000EE0642C0CDD40F6FD20844208DA082152
:100320000A4800F065FA4FF480410B4800F062FA89
:100330004FF4A071024800F02AF800BF70BD000021
:10034000002401405003002010000020000801405C
:10035000F56C567D2EC49E40001001407E1D38670E
:10036000445699400A4600214168024B1940114306
:1003700041607047FFFD3FFF0A460021416821F0C0
:100380001F01114341607047416282627047002241
:100390000A12D3430360704721B1826842F0010220
:1003A000826003E0826822F00102826070470146A9
:1003B00000208A6802F004020AB1012000E0002057
:1003C00070470146C86C80B270470246002013682F
:1003D0000B400BB1012000E00020704770B50246D1
:1003E0000020002300240B125568CEB205EA060453
:1003F00015681D4015B10CB1012000E0002070BD52
:10040000014600208A6802F008020AB1012000E0DB
:100410000020704710B50023CBB21AB144681C43CA
:10042000446002E044689C43446010BD30B502461D
:100430000020002350680F4C20400D790C6844EADE
:1004400005242043506090680B4C2040D1E90254B1
:100450002C434D7944EA450420439060D06A20F44F
:1004600070000C7C641EE4B2234340EA0350D06267
:1004700030BD0000FFFEF0FFFDF7F1FFF0B50446D0
:100480000D4600200021092D11DDE068A5F10A06C6
:1004900006EB4607072606FA07F18843A5F10A0688
:1004A00006EB460603FA06F10843E0600CE020691B
:1004B00005EB4507072606FA07F1884305EB4506D5
:1004C00003FA06F108432061072A0FDA606B561E13
:1004D00006EB86071F2606FA07F18843561E06EB31
:1004E000860605FA06F10843606322E00D2A0FDA5A
:1004F000206BD61F06EB86071F2606FA07F18843F6
:10050000D61F06EB860605FA06F10843206310E0C5
:10051000E06AA2F10D0606EB86071F2606FA07F130
:100520008843A2F10D0606EB860605FA06F108439C
:10053000E062F0BD816841F008018160704721B13F
:10054000826842F4A002826003E0826822F4A00282
:1005500082607047816841F004018160704700212A
:100560000160017141718160C160012101747047B6
:100570000146002901DA484270470846FCE70000BE
:100580002DE9F0474FF48051264800F028F910B9C2
:100590000120BDE8F087072001F01EFB064602F0AF
:1005A000E6F804460D464FF4A4792046294602F0A9
:1005B00081F81D491D4A126841F822001B48006855
:1005C000401C1A49086008460068322801D1002002
:1005D00008600024254600260CE0134951F8260047
:1005E00002F0C5F8074622462B4601F04FFE0446AE
:1005F0000D46761C322EF0DB00220D4B204629469C
:1006000001F000FF04460D46484602F0B0F80646E9
:1006100022462B4602F010FA01D20120B9E7002051
:10062000B7E7000000080140E004002014000020AB
:100630000000494021B1026842F00102026004E07A
:1006400002684FF6FE731A400260704710B5002230
:10065000026847F6F0739A430C6A8B6823430C696F
:1006600023434C6923438C692343CC6923434C6A5D
:1006700023438C6A23431A430260CB6843600B68B0
:1006800083604B68C36010BD0021016041608160E0
:10069000C160016141618161C16101624162816248
:1006A0007047000010B54FF40041054800F0A2F873
:1006B000012004490870002000F0E6FB10BD000096
:1006C00000100140080000202DE9F04102460025FD
:1006D0000026002000230024002791F803C00CF01E
:1006E0000F0591F803C00CF0100CBCF1000F03D003
:1006F00091F802C04CEA050591F800C0BCF1000F6A
:1007000031D0146800202BE04FF0010C0CFA00F3FC
:10071000B1F800C00CEA03069E4220D183004FF0DE
:100720000F0C0CFA03F7BC4305FA03FC4CEA040473
:1007300091F803C0BCF1280F06D14FF0010C0CFA60
:1007400000FCC2F814C00AE091F803C0BCF1480FE5
:1007500005D14FF0010C0CFA00FCC2F810C0401C8F
:100760000828D1D31460B1F800C0BCF1FF0F34DD0C
:10077000546800202EE000F1080C4FF0010808FA40
:100780000CF3B1F800C00CEA03069E4221D18300AD
:100790004FF00F0C0CFA03F7BC4305FA03FC4CEACC
:1007A000040491F803C0BCF1280F05D100F1080C36
:1007B00008FA0CF8C2F8148091F803C0BCF1480F95
:1007C00007D100F1080C4FF0010808FA0CF8C2F844
:1007D0001080401C0828CED35460BDE8F08102464A
:1007E000002093680B400BB1012000E0002070470F
:1007F00041617047016170474FF6FF71018002212E
:1008000081700421C17070472DE9F041092001F089
:10081000E3F9064601F0ABFF04460D460022244BE7
:100820002046294601F0EEFD06460022214B02F04B
:1008300039F904460D46FFF7A3FE20B900241E4DEA
:100840000A2001F0E3F92046294601F033FF1B4955
:100850001B4A126841F8220019480068401C1849D8
:10086000086008460068C82801D1002008600024FC
:10087000254600260CE0114951F8260001F077FFCB
:10088000074622462B4601F001FD04460D46761C24
:10089000C82EF0DB00220B4B2046294601F0B2FDAA
:1008A00004460D462046294601F004FFBDE8F081CC
:1008B00000003A4000C0724000407F4030000020FD
:1008C0000C000020000069400EB5012140F61D001B
:1008D00000F0F2F86846FFF78FFF10208DF8030054
:1008E00041F20900ADF8000003208DF802006946CE
:1008F0002748FFF7E9FE48208DF803004FF4006019
:10090000ADF8000003208DF8020069462048FFF78B
:10091000DBFE48208DF803004FF4F060ADF80000D6
:1009200001208DF8020069461A48FFF7CDFE10201D
:100930008DF803004FF46040ADF8000001208DF801
:10094000020069461448FFF7BFFE02A8FFF754FFF4
:1009500010208DF80B004FF4E060ADF80800012086
:100960008DF80A0002A90A48FFF7AEFE01A8FFF7BA
:1009700043FF10208DF807004FF46040ADF80400ED
:1009800003208DF8060001A90248FFF79DFE0EBD69
:1009900000080140000C01400010014070B500212A
:1009A00000230F22C47804B3154C246804F4E064D7
:1009B000C4F5E064210AC1F10403CA40447804FA92
:1009C00003F184781440214309010E4C0678A155A7
:1009D000047804F01F050124AC4005786D11AD00CA
:1009E00005F1E025C5F8004109E0047804F01F0591
:1009F0000124AC40044D0678761145F8264070BDC0
:100A00000CED00E000E400E080E100E02DE9F041C1
:100A10004FF400411C48FFF7EDFE002416E020468D
:100A200004EBD0714910A4EB410129B94FF4004106
:100A30001548FFF7DFFE04E04FF400411248FFF7CE
:100A4000D7FE4FF4967001F0E1F8641C0F2C0BDA1E
:100A5000062001F0C1F8074601F089FE05460B4A61
:100A60000B4B01F0AFFEDAD34FF400410648FFF71D
:100A7000BFFE0020074908704FF480410248FFF78D
:100A8000B9FEBDE8F081000000100140365EBA49B1
:100A90000C19A2400800002029B1064A52690243FD
:100AA000044B5A6104E0034A52698243014B5A6184
:100AB000704700000010024029B1064A92690243C3
:100AC000044B9A6104E0034A92698243014B9A61A4
:100AD00070470000001002402DE9F04F87B0FFF78B
:100AE00093FE824622490968AAEB0100FFF740FD08
:100AF00002283ADD40F2DC5082452DDA504602F001
:100B000087FA1C49019002F0A5F9014602904FF0C6
:100B10007E5002F09FF9039002F0BAF8164A174B84
:100B2000CDE9040101F08AFE8046154A154B01F01B
:100B3000ADFB0646144A154B01F080FE044601F059
:100B400073FB014606904FF07C5001F087F8834616
:100B5000584601F03FFA02E00D4801F03BFA5046DA
:100B600000F018F8282001F051F807B0BDE8F08F28
:100B7000000000200080BB44BA490C022B87B63F1E
:100B8000FCA9F1D24D62903FC3F5285C8FC2ED3FC6
:100B9000CDCCCC3D10B50446C82C06DDD22C04DAF1
:100BA00001211948FFF726FE03E001211648FFF74F
:100BB0001FFE00211548FFF73DFD002113483C387A
:100BC000FFF738FD002111485038FFF733FD0021B1
:100BD0000F4800F063FA0F4804600D4928310C807B
:100BE00001210B4800F05AFA01210848FFF722FDC5
:100BF000012106483C38FFF71DFD0121034850380C
:100C0000FFF718FD10BD0000000801406C00024015
:100C1000002C01400000002010B500F001F810BDCC
:100C20000CB50020019000903348006840F48030FB
:100C30003149086000BF3048006800F4003000907F
:100C40000198401C0190009818B90198B0F5A06F68
:100C5000F1D12948006800F4003010B10120009063
:100C600001E0002000900098012843D1234800684B
:100C700040F01000214908600846006820F0030099
:100C800008600846006840F0020008601A484068A2
:100C9000194948600846406848600846406840F482
:100CA000806048600846406820F47C104860084630
:100CB000406840F4E81048600846006840F08070E2
:100CC000086000BF0C48006800F000700028F9D0F0
:100CD0000948406820F0030007494860084640681A
:100CE00040F00200486000BF0348406800F00C007C
:100CF0000828F9D10CBD000000100240002002407D
:100D00002DE9F04F89B04FF480415148FFF772FD53
:100D1000642000F07BFF80214E48FFF760FD08B1A2
:100D2000012000E000204C490870002403E0FFF798
:100D30006BFD8146641CC82CF9DB4FF46170474998
:100D40000860782046490860464801F043F901F000
:100D500009FA00F097FF01F0A3F801F0D7F801F0CD
:100D600007F94FF480514048FFF744FD4FF0000A67
:100D700040F2AA5468E04FF480613648FFF72FFD37
:100D800070B90AF1010A4FF400413148FFF732FD12
:100D9000BAF11E0F46DDFFF785FC09B0BDE8F08F04
:100DA0004FF400412A48FFF723FDB4F5AF6F2EDA68
:100DB000204602F02DF92D49009002F04BF8014633
:100DC00001904FF07E5002F045F8834601F060FF3D
:100DD000274A284BCDE9020101F030FD264A274B76
:100DE000CDE9040101F052FA0746254A254B01F0EE
:100DF00025FD054601F018FA014606904FF07C509B
:100E000000F02CFF0790079801F0E4F800BFFFF70F
:100E1000B7FB20B1322094FBF0F0241A02E0C82086
:100E200000F0F4FE2046FFF7B5FE022000F0EEFED3
:100E300000F0EAFA38B1002000F026F84FF496707E
:100E400000F0E4FEA9E7641E4C4594DC00BFA4E773
:100E500000100140000C014018000020000000209C
:100E600004000020CDCCCC3D000801400080BB44F4
:100E7000BA490C022B87B63FFCA9F1D24D62903FD4
:100E8000C3F5285C8FC2ED3F2DE9F04F89B0814654
:100E9000B9F1000F65D000BF4FF0000A5148046857
:100EA00059E04FF480615048FFF799FC50B90AF1BE
:100EB000010A4FF400414D48FFF79CFCBAF1320F94
:100EC0003EDD4CE04FF400414848FFF791FCB4F59B
:100ED000AF6F2EDA204602F09BF84549009001F0F2
:100EE000B9FF014601904FF07E5001F0B3FF8346F9
:100EF00001F0CEFE3F4A404BCDE9020101F09EFCDD
:100F00003E4A3F4BCDE9040101F0C0F907463D4A96
:100F10003D4B01F093FC054601F086F90146069031
:100F20004FF07C5000F09AFE0790079801F052F8BD
:100F300002E0364801F04EF83C2094FBF0F0044407
:100F40002046FFF727FE052000F060FE082130480C
:100F5000FFF74EFC641C40F2DC508442A1DB00BF72
:100F600000BF0A2000F052FE00212A48FFF762FB72
:100F7000002128483C38FFF75DFB00212548503808
:100F8000FFF758FB0021244800F088F8FFF79CFC8D
:100F90004FF480511E48FFF72BFC4FF400511248CC
:100FA000FFF726FC4FF480410F48FFF721FC4FF478
:100FB00000410D48FFF71CFC012000F027FE4FF414
:100FC00080711348FFF716FC4FF400711048FFF7CB
:100FD00011FC4FF480610E48FFF70CFC09B0BDE82E
:100FE000F08F000000000020000C014000100140C4
:100FF0000080BB44BA490C022B87B63FFCA9F1D252
:101000004D62903FC3F5285C8FC2ED3FCDCC4C3D87
:10101000000801406C000240002C014010B513484C
:10102000006840F001001149086008464068104916
:1010300008400E494860084600680E4908400B49C0
:1010400008600846006820F4802008600846406870
:1010500020F4FE0048604FF41F008860FFF7DCFDBD
:101060004FF000600449086010BD0000001002400D
:101070000000FFF8FFFFF6FE08ED00E00A884B884D
:101080001A438B881A43CB881A430B891A434B891E
:101090001A438B891A43A0F84420704721B1028873
:1010A00042F00102028004E002884FF6FE731A400B
:1010B0000280704731B1B0F8442042F40042A0F8F9
:1010C000442005E0B0F84420C2F30E02A0F844200A
:1010D00070471AB183890B43838102E083898B4374
:1010E0008381704770B5002400220023058C4FF6E1
:1010F000FE7635400584028C8388048B4FF68F750D
:101100002C40B51E2C400D882C43751E2A400D899D
:101110002A434D882A43144DA8420BD0134DA842B0
:1011200008D0134DA84205D0124DA84202D0124D4E
:10113000A84213D14FF6F7752A404D892A434FF63E
:10114000FB752A408D882A434FF6FF652B404FF6EA
:10115000FF552B408D892B43CD892B4383800483FE
:10116000CD888586028470BD002C0140003401408A
:101170000040014000440140004801400A4600216F
:10118000018B4FF6F773194011430183704700003C
:1011900070B5002400220023058C4FF6EF76354011
:1011A0000584028C8388048B48F6FF752C404FF62B
:1011B000FF452C400D884FF6FF7606EA05252C43A7
:1011C0004FF6DF752A400D8906EA05152A434D883A
:1011D00006EA05152A43154DA84202D0144DA8422F
:1011E0001DD14FF67F752A404D894FF6FF7606EAEE
:1011F00005152A434FF6BF752A408D8806EA051566
:101200002A434FF6FF352B404FF2FF752B408D8957
:1012100006EA85052B43CD8906EA85052B438380A5
:101220000483CD880587028470BD0000002C014036
:10123000003401400A460021018B4FF2FF73194030
:101240004FF6FF7303EA022319430183704700003E
:1012500070B5002400220023058C4FF6FF66354050
:101260000584028C8388848B4FF68F752C404FF653
:10127000FC752C400D882C434FF6FF552A400D89F4
:101280004FF6FF7606EA05252A434D8806EA05252E
:101290002A43154DA84202D0144DA8421DD14FF249
:1012A000FF752A404D894FF6FF7606EA05252A4349
:1012B0004FF6FF352A408D8806EA05252A434EF66B
:1012C000FF752B404DF6FF752B408D8906EA0515FD
:1012D0002B43CD8906EA05152B4383808483CD8873
:1012E0008587028470BD0000002C0140003401405D
:1012F0000A460021818B4FF6F77319401143818311
:1013000070470000002202881D4B98420ED01D4BF2
:1013100098420BD0B0F1804F08D01B4B984205D0BB
:101320001A4B984202D01A4B984204D14FF68F7351
:101330001A404B881A43174B984207D0164B9842D5
:1013400004D04FF6FF431A40CB881A4302808B88A3
:1013500083850B8803850A4B98420BD0094B984232
:1013600008D00E4B984205D00D4B984202D00D4B41
:10137000984201D10B7A03860123838270470000D3
:10138000002C0140003401400004004000080040EF
:10139000000C0040001000400014004000400140DC
:1013A00000440140004801404FF6FF718180002158
:1013B0000180C180418001727047000010B54FF478
:1013C00080710E48FFF70BFAA8B94FF480510C4812
:1013D000FFF705FA78B90B48007860B90A2000F0E9
:1013E00015FC4FF480710548FFF7F9F908B90120A1
:1013F00010BD0020FCE70020FAE70000000C0140CF
:10140000000801400800002010B54FF400710948A1
:10141000FFF7E5F960B90A2000F0F8FB4FF400711E
:101420000448FFF7DCF908B9012010BD0020FCE7F3
:101430000020FAE7000C0140490050EAC12018BF23
:1014400004204A0D18BF40F0010040F2FF72B2EBD9
:10145000515F08BF40F00200012808BF0520704717
:101460002DE9F74F144694B00021C4E902111599F3
:10147000079121F00045C9498D4206DC1599C4E960
:10148000000117B00020BDE8F08FC549DFF814A3B4
:10149000A9423CDD0799C44E0029C44FC44A15999E
:1014A000534619DD01F00AFB554506D0C14AC24B2F
:1014B00001F004FBC4E900010AE04FF0D352BE4B37
:1014C00001F0FCFA32463B4601F0F8FAC4E90001AB
:1014D00017B00120BDE8F08F00F0D8FE554506D0CA
:1014E000B44AB54B00F0D2FEC4E900010AE04FF067
:1014F000D352B14B00F0CAFE32463B4600F0C6FE66
:10150000C4E9000117B04FF0FF30BDE8F08FAB49E0
:10151000A942159978DB21F0004183468846A84A04
:10152000A84B01F08BF90022A74B00F0AFFE01F0B1
:10153000C1F8099001F01BF906460F469C4A534634
:1015400001F07CF943465A4601F0ACFA80468A46DF
:10155000984A994B3046394601F070F92A0D012519
:101560000B924246534601F09DFA032DC4E9000157
:1015700039D00B98C1F30A51401A05EB45111139C6
:10158000814230DA9148C346784400EB0510CDF82B
:101590000CA00C90D0E900233046394601F04EF9FA
:1015A00002460B46049106905846039901F086FACC
:1015B00080468A4602460B465846039901F07EFA59
:1015C000049B069A01F07AFA83460C9803913946F7
:1015D000D0E90223304601F031F95A46039B01F06D
:1015E0006DFA6D1CBDE707980028A2BF099817B0D7
:1015F000BDE8F08F616881F000416160099817B023
:101600004042BDE8F08FFFE784461598C1F313010F
:10161000C0F30A50A0F2F5304FEA601800F01F0640
:10162000C6F12000139000200690079041F4801E20
:1016300005206D4676B1664A08EB00017A4452F8FF
:10164000213002EB8101B3404A68139922FA01F17B
:10165000194305E05F4908EB0002794451F8221074
:10166000A1FB0E27A1FB0C131A449A4234BF01239D
:10167000002303EB070A05EB8003D3E901B70F440E
:101680008F4234BF0121002193448B4411B1934513
:1016900002D903E0934501D2012100E00021C3E912
:1016A00001B7514445F82010011EA0F10100C1DC32
:1016B0000298059F00F10050800F12900298DDE91A
:1016C0000356800001F053F8834628460D9101F03F
:1016D00065F86FF01D0201F03AFECDE90E013046CB
:1016E00001F05CF86FF03D0201F031FE80468A4661
:1016F000384601F053F86FF05D0201F028FE07460E
:1017000042465346119100F0C1FDDDE90E2300F081
:10171000BDFD5A460D9B00F0B9FD00250E465A4608
:1017200028460D9B01F0CAF9DDE90E2301F0C6F948
:101730004246534601F0C2F93A46119B01F0B2F914
:10174000DFF898A0244A534601F078F80746884607
:10175000234A244B3146284601F070F83A46434666
:1017600000F094FD074688464FF0A84253463146A4
:10177000284601F063F83A46434600F087FD159A83
:1017800012F0004F04D0129A81F00041524212929E
:10179000C4E90001129817B0BDE8F08FFB21E93FC2
:1017A0007CD90240FB21F93F7370032E8A19A33BB9
:1017B000000040543163621A61B4D03DFB213941CD
:1017C00083C8C96D305FE43F0000E03F841E000025
:1017D000001E0000E21D0000182D4454FB21F93DBD
:1017E0003326A611460B113C2DE9FF4D21F0004890
:1017F00007460C46B8F1795F08DA00F05BFF002875
:1018000001BF0020324904B0BDE8F08D3A462346BE
:101810001046194601F012F8054602462D480E46BC
:101820000B460621784400F05DF82A46334601F065
:1018300005F8DDE9022382468B463846214600F052
:10184000FDFF04460F4652465B462846314600F0EF
:10185000F5FF22463B4601F031F907468A464FF034
:10186000FF322846314601F072FD1B4A90450ADAE4
:101870003A46534601F022F904B00022BDE8F04D8B
:10188000134B01F00FB9154A4245A8BFA8F5001542
:101890004FF00004B8BF124D22462B4601F00EF95E
:1018A0000646884622462B460020094901F006F9E3
:1018B00004460D463A4653463046414601F0FEF88E
:1018C00004B022462B46BDE8F04D01F0EBB8000015
:1018D0000000F03FB81B00003333D33F0000E93F66
:1018E0000000D23F2DE9F0414F1E00EBC701044636
:1018F000D1E9000115461E4637F006020DD02A46F2
:10190000334600F09BFF7F1E04EBC703D3E900239F
:1019100000F0BCFC37F00602F1D1022F25D0042FD5
:1019200013D0062F18BFBDE8F0812A46334600F0D9
:1019300085FFD4E90A2300F0A9FC2A46334600F0CB
:101940007DFFD4E9082300F0A1FC2A46334600F0CD
:1019500075FFD4E9062300F099FC2A46334600F0CF
:101960006DFFD4E9042300F091FC2A46334600F0D1
:1019700065FFD4E9022300F089FC2A46334600F0D3
:101980005DFFD4E90023BDE8F04100F07FBC00001A
:101990002DE9FF4D054621F0004084B00C46B0F122
:1019A000795F0BDA2846FFF747FD042808BF00F0EF
:1019B0006FF8284608B02146BDE8F08D2A460B4650
:1019C000104600F03BFF06460F462A46234600F02D
:1019D00035FF804626488A4632463B4605217844F4
:1019E000FFF780FF83461098029160B3214A224B93
:1019F0004046514600F022FFCDE900015A464046DC
:101A00005146029B00F01AFF82468846DDE9060136
:101A10004FF0FF3201F09BFC5246434601F04EF876
:101A200032463B4600F00AFFDDE9062301F046F8A6
:101A3000DDE9002301F042F808B02A462346BDE85C
:101A4000F04D01F02FB80B465A463046394600F0AB
:101A5000F5FE084A084B00F019FC4246534600F0D8
:101A6000EDFE08B02A462346BDE8F04D00F00EBC5E
:101A7000F61A0000495555555555C5BF012201F0CC
:101A800066BC002213461046114600F0BBBC0000A5
:101A9000024A0020110701F05ABC000001FDFFFFBF
:101AA00000B587B001214802FFF706F812208DF833
:101AB000180001208DF819008DF81A008DF81B0010
:101AC00006A8FEF76BFF002001908DF808000120AA
:101AD0008DF809004FF4602003900020049001204D
:101AE0008DF8140001A91F48FEF7A0FC072301226E
:101AF00006211C48FEF7C2FC40F60C1240F6AA2153
:101B00001848FEF741FC06211648FEF735FC164939
:101B10001448FEF727FC01224FF4A0711148FEF78C
:101B200079FC01210F48FEF737FC0E48FEF702FD55
:101B300000BF0C48FEF764FC0028FAD10948FEF704
:101B400009FD00BF0748FEF732FC0028FAD1012149
:101B50000448FEF721FC01210248FEF7F0FC07B023
:101B600000BD0000002401400002800000B585B0E7
:101B700001218802FEF7A0FF6846FEF7F0FC002076
:101B800000908DF804008DF805004FF4602002905D
:101B90000020039001208DF8100069460D48FEF7E3
:101BA00045FC01210B48FEF7F7FB0A48FEF7C2FC93
:101BB00000BF0848FEF724FC0028FAD10548FEF7CC
:101BC000C9FC00BF0348FEF7F2FB0028FAD105B0BC
:101BD00000BD00000028014010B504460323012287
:101BE00021460948FEF74AFC01210748FEF7A7FCF9
:101BF00000BF02210448FEF7E8FB0028F9D00248A4
:101C0000FEF7DFFB10BD000000280140104A1268FB
:101C10004FF47A73B2FBF3F202FB00F10D4A126843
:101C200042F080720B4B1A6000220B4B5A601A462E
:101C3000126842F001021A6000BF074A52688A42E5
:101C4000FBD3054A126822F00102034B1A60704769
:101C50001C000020FCED00E0001000E070B50C4618
:101C6000054601F0CCF800F07040B0F1004F07D00D
:101C700024F00040C0F1FF40C00F04BF204670BDFB
:101C8000284670BD1CB501A8FEF7B6FD18208DF8DA
:101C900007004FF4E060ADF8040001208DF8060065
:101CA00001A90A48FEF710FD6846FEF7A5FD4FF4AE
:101CB0006040ADF8000018208DF8030001208DF879
:101CC000020069460248FEF7FFFC1CBD0008014007
:101CD000000C0140FFF74AFFFFF7E2FE0020FFF78C
:101CE000D3F8FEF793FE7FE0FFF768FB20B1FFF724
:101CF00007F83220FFF78AFFFFF786FBA8B13B48C1
:101D0000007860B10020394908704FF4004138482C
:101D1000FEF76EFD40F2DC50FFF778FF05E0012092
:101D2000FFF7B2F8FA20FFF771FF4FF48051314806
:101D3000FEF755FDB8B180212F48FEF750FD2F4921
:101D4000097888420FD00A20FFF760FF80212A48D7
:101D5000FEF745FD29490978884204D00120FFF7A4
:101D600093F8FEF7CDFF4FF480512248FEF737FD80
:101D700008B1FEF7B1FE4FF480611F48FEF72FFD5A
:101D800078BB002500241FE04FF480611A48FEF75D
:101D900026FD50B96D1C4FF400411548FEF72AFD91
:101DA0001E2D02DDFEF77EFC11E0FFF72DFB38B1A2
:101DB0000020FFF769F84FF49670FFF727FF06E061
:101DC0000A20FFF723FF641CB4F5967FDCDB00BF1D
:101DD0000648007820B94FF400410548FEF708FD99
:101DE00000BF0120FFF712FF7EE70000080000207F
:101DF0000010014000080140000C014018000020C4
:101E000000B5254B21F0004287B09A4203DC002246
:101E1000134600922BE0214B9A4208D140B94FF073
:101E20000100FEF7D9F9FFF72CFE07B000BD03DB78
:101E3000FFF724FE07B000BD02AAFFF711FB10F068
:101E400003014FF001000DD0012914D002291AD04E
:101E50000DF1080C9CE80F00FFF7C6FC07B081F0FD
:101E6000004100BD0DF1080C00909CE80F00FFF749
:101E70008FFD07B000BD0DF1080C9CE80F00FFF7C7
:101E8000B3FC07B000BD0DF1080C00909CE80F00FA
:101E9000FFF77EFDE2E70000FB21E93F0000F07F55
:101EA00000B58BB001210846FEF7F6FD6846FEF747
:101EB000EBFB12480090124801901020029011484C
:101EC0000068039000200490802005904000069058
:101ED00080000790202008900002099069460A4877
:101EE000FEF7B4FB01210848FEF7A4FB01225102D2
:101EF00002483438FFF7EDF80BB000BD342C014038
:101F0000A8050020040000201C00024000B58BB092
:101F10006846FEF7B9FB1248009012480190102065
:101F200002901148006803900020049080200590E2
:101F30004000069080000790202008900002099041
:101F400069460A48FEF782FB01210848FEF772FB4A
:101F50000122910202483838FFF7BBF80BB000BDF0
:101F6000382C0140500800200400002030000240BE
:101F700000B58BB06846FEF787FB12480090124808
:101F800001901020029011480068039000200490F6
:101F90008020059040000690800007902020089047
:101FA0000002099069460A48FEF750FB01210848E3
:101FB000FEF740FB0122D10202483C38FFF789F8C6
:101FC0000BB000BD3C2C0140F80A002004000020AA
:101FD0006C0002402DE9F04F8DB0834600200C903C
:101FE0005548007808B1002500E0544DDFF850A1B5
:101FF0005148007808B1514E00E00026514958463A
:1020000001F032F8044600F0E7FF0C9000248BE06A
:102010004D48006800F0FCFF0B90204601F010F8DE
:1020200080464FF0804101F01FF807460B9900F001
:1020300011FF81462946484600F056FE019000F007
:1020400027FE424A424BCDE9020100F0F7FB07466A
:10205000FFF7D6FE00223F4BCDE9040100F016F950
:10206000CDE908010C9800F082FBCDE90601DDE91D
:10207000082300F0E3FBCDE90A0100F04BFB3649F1
:1020800021F814005146484600F02EFE019000F061
:10209000FFFD07462D4A2E4B00F0D0FBCDE9020193
:1020A000FFF7AEFE00222B4BCDE9040100F0EEF865
:1020B000CDE908010C9800F05AFBCDE90601DDE9F5
:1020C000082300F0BBFBCDE90A0100F023FB234904
:1020D00021F814003146484600F006FE019000F059
:1020E000D7FD1A4A1A4BCDE9020100F0A7FBCDE952
:1020F0000401FFF785FE07460022164B00F0C6F8E4
:10210000CDE908010C9800F032FBCDE90601DDE9CC
:10211000082300F093FBCDE90A0100F0FBFA104917
:1021200021F81400601C84B2074800688442FFF65E
:102130006FAF0DB0BDE8F08F18000020ABAAAA3F2A
:10214000ABAA2A3F00006442040000206E861BF008
:10215000F92109400000F03FA805002050080020A8
:10216000F80A002000B58BB008A8FFF71DF92C482D
:10217000008880B2ADF820000020ADF822003920A0
:10218000ADF824000020ADF8260008A92548FFF787
:10219000B9F86020ADF810000120ADF8120004205D
:1021A000ADF8140004A91F48FEF79CFF08211D4844
:1021B000FEF7E4FF04A91B48FEF7EAFF08211948CF
:1021C000FFF738F804A91748FFF742F80821154827
:1021D000FFF78EF801211348FEF760FF0121114837
:1021E000FEF768FF4FF40060ADF800004010ADF856
:1021F00002008010ADF80400FE20ADF806000020BB
:10220000ADF808004FF40050ADF80A004000ADF8FA
:102210000C0069460348FEF731FF0BB000BD00001B
:1022200000000020002C014021F00042A2F1605289
:10223000B2F5801F01F0004328BFD2F17F6C0BD9AB
:102240005FEA001C43EAC20242EB507018BF7047BD
:1022500028BF20F001007047B2F5801FBCBF1846B0
:1022600070474FEA410C1CF5001F02D2084600F0EF
:10227000C2BF70B500F08CFB00000089FFF7F6BF0D
:102280004FF00040A0F580007047000010B591EAC3
:10229000030F48BF83F0004300F11884841A71EBE8
:1022A000030C05D2121943EB0C03001B61EB0C016C
:1022B000DFF824E14FEA1154A4EB135C1EEA430F4C
:1022C00018BF9EEA445F73D023EA0E03DCF1200EB0
:1022D00021EA045143F4801332D322FA0CFE10EBAE
:1022E0000E0023FA0CFE41EB0E01CCF1200E03FA96
:1022F0000EFE10EB0E0051F10001B1F5801FCCF184
:10230000200E32D201EB045112FA0EF2BDE8104059
:1023100058BF7047401C38BF5FEA420218BF704781
:10232000002814BF20F0010041F100014FEA4103F1
:1023300013F5001F38BF7047A1F1C04100F076BB14
:10234000012A43EB0302ACF1200CDCF11F0E32BF7B
:102350004FF0000E23FA0CF310EB030041EB045195
:10236000B4EB115FD0D0A1EB045101F58011490805
:102370005FEA300001EB04510ED350F1000038BF8A
:1023800012FA0EFE08D1BDE81040C9E7401C38BF64
:102390005FEA4202CAD1C3E7BDE810404FEA4103F9
:1023A00013F5001F38BF7047A1F1C04100F03EBBDC
:1023B0009EEA445F08D011EA5E0FBDE8104004BFFA
:1023C00001F0004100207047BDE8104070B500F0FA
:1023D000DFFA00BF64FBBE3E0000E0FF02494FF0A1
:1023E000000000F082BF00BF0000F87F491058BF16
:1023F000C1F140415B1058BFC3F140438B42EFF342
:10240000008070472DE9C04130B4DFF8A0C23CEA3B
:10241000111418BF3CEA131400F0EC8081EA0305A4
:102420001CEA111444EAD57418BF1CEA131500F015
:10243000C780A4EB05044FF0004545EAC12145EAF9
:10244000C32341EA505143EA525304F17F74994245
:1024500004F500344FEAC0204FEAC22208BF904280
:1024600000F09C804FEA13650FF24016765D4FEA4C
:10247000134506FB05F7C7F1807706FB07F74FEA20
:10248000D737A7FB03687642C8F58038A7FB06CE8E
:1024900038BFA8F1010807FB08E64FF0000EA6FBC5
:1024A000028CE6FB03CEDCF1000CCEF1004E38BF0F
:1024B000AEF1010EA6FB0C584FF000074FF00005DF
:1024C000E6FB0E87A1FB08C6A0FB07CE16EB0E06A7
:1024D00045F10005E1FB076515F1E04E7EBFA4F56F
:1024E00080345FEA46066D4116F1800745F100052C
:1024F0004FEA17274FEA066647EA0567A6F1DE4668
:10250000B6F1805F4FEA15251FD9384624F0010C3B
:1025100005EBC471BCF1FE6F01EB0C1102D8F0BCED
:10252000BDE8008124425CBF01F5801E9EEAC47FA5
:1025300002D4F0BCBDE80081244238D4F0BCA1F143
:10254000C041BDE8004100F071BA4FEAD22242EA30
:1025500043524FEAD323A7FB02864FEAD02040EA3A
:10256000415007FB03661EEA0E0F4FEAD12105FB1F
:10257000026658BFA6EB0056B6EB00564FEA520E65
:102580004EEAC37E18EB0E0E56EB530EBDD518EB7C
:1025900002085E417F1C55F10005B6E74FF4801537
:1025A0004FF000074FF000064FF00008ADE7F0BC19
:1025B0004FF0000001F1C04101F00041BDE8008191
:1025C00011EA0C1F0CEA131500D00CE013EA0C1FE3
:1025D00000F025804FF00000F0BC81EA030101F01B
:1025E0000041BDE80081F0BCBDE8004181EA030183
:1025F00000F01CBAF0BCBDE8004170B500F0C8F9AD
:10260000097EFC3E00F007B881EA03014FF00000AC
:1026100001F00041704781EA030100F007BAF0BC05
:10262000BDE800414FF0000021497047FFFDFBF974
:10263000F7F5F4F2F0EEEDEBE9E8E6E4E3E1E0DEF5
:10264000DDDBDAD8D7D5D4D3D1D0CFCDCCCBCAC867
:10265000C7C6C5C4C2C1C0BFBEBDBCBBBAB9B8B78E
:10266000B6B5B4B3B2B1B0AFAEADACABAAA9A8A881
:10267000A7A6A5A4A3A3A2A1A09F9F9E9D9C9C9B4F
:102680009A999998979796959594939392919190FA
:102690008F8F8E8E8D8C8C8B8B8A8989888887878B
:1026A0008685858484838382828181800000FF0700
:1026B0000000F87F4FEA41034FEA5353A3F58063CC
:1026C000D3F11E03C8BFD3F1210C0CDD4FF0004243
:1026D00042EAC12242EA505232FA03FC8CEAE17C1F
:1026E000ACEBE1707047102BC4BF0020704703F5BE
:1026F000787CBCF1FF3F04D06FF0004282EA2100F9
:10270000704770B500F044F949922480002070476A
:10271000F2E700004FEA1153A3F58063D3F11E03E3
:10272000A8BFD3F1200C08DB4FF0004242EAC122DF
:1027300052EA505232FA03F0704709420BD4102B80
:10274000C4BF0020704703F5787CBCF1FF3F05D083
:102750004FF0FF3070474FF00000704770B500F049
:1027600017F900BF4992248000207047F0E710F06D
:10277000004248BF4042B0FA80F310FA03F10AD099
:10278000C3F11D0303F580634FEA415002EB03528E
:1027900002EBD12170474FF000007047B0FA80F390
:1027A00010FA03F10AD0C3F11D0303F580634FEA69
:1027B00041504FEA035202EBD12170474FF0000025
:1027C0007047000051EA030C17D41CF5801F58BF56
:1027D000BCF5801F00F10680994218BF704708BF02
:1027E0009042704707D711F5801F58BF13F5801F1F
:1027F00019D499427047894270471CF5801F08D54B
:10280000BCF5801FF7D58B4218BF704708BF8242C6
:1028100070474FF4001C1CEB410F38BF1CEB430FFB
:1028200001D28B42704770B500F0B2F89224490093
:102830004FF000514FF08053FFF7D8BDDFF848C18B
:1028400070B51CEA111E1EBF1CEA13159EEA0C0F80
:1028500095EA0C0F00F06F8081EA030423EA4C1321
:102860004EEAD47E21EA4C1141F4801143F48013E6
:10287000AE44A1FB024CA0FB0365AEF17F7E36198E
:1028800055EB0C05A1FB034C4CF10003A0FB021C13
:1028900016EB0C06654153F10003094218BF46F0E0
:1028A000010613F4007F0BD14FEA03314FEA0530E4
:1028B000340341EA155140EA16506FF003020AE072
:1028C0004FEAC3214FEAC520F40241EA555140EADC
:1028D00056506FF0020202EB2E4201EB025585EAE0
:1028E000CE710AD05FEA440C18BF24F0004450F1C6
:1028F000000041F1000120EAD47040F2FE7C624504
:1029000000D270BDA84214BF4FF080444FF0404445
:10291000002E08BF0024BEF1806FA8BFA1F1C04106
:10292000BDE8704080F282804FF0000001F1C041AC
:1029300001F0004170479EEA0C0F0CEA131518BF16
:1029400095EA0C0F06D04FF0000081EA030E0EF05E
:10295000004170BD00F01CF88900013E00F007B88E
:1029600000F009B84FEA430C5FEA5C5C08D081EAEA
:10297000030100F05BB84FEA410C5FEA5C5CF6D102
:102980004FF00000014970470000FF070000F87F8A
:102990000EF1020E2EF0030E5EF8046B364205D4E3
:1029A000012A43EB030515F5001F12D8012841EB5E
:1029B000010C1CF5001F0CD80ED14FEAD17C15F587
:1029C000001F0CEB4C0C0CF1020C08BF4CEBD37C41
:1029D00004E04FF0080C01E04FEAD37C0CEB4C050F
:1029E00026FA05F606F00706B6F1040C06D20EEB41
:1029F000860CBDE870404CF0010C6047DFE80CF03D
:102A0000090B02024FF000414FF00000A1F5002138
:102A100070BD19461046012851EB010418BFD4F5CA
:102A2000001484BF002001F0004170BD0808A0F52B
:102A300000114FEA3101704753EA010C17D41CF51D
:102A4000801F58BFBCF5801F00F106808B4218BF65
:102A5000704708BF8242704707D713F5801F58BFE1
:102A600011F5801F19D48B4270479B4270471CF5AB
:102A7000801F08D5BCF5801FF7D5994218BF704755
:102A800008BF904270474FF4001C1CEB430F38BF47
:102A90001CEB410F01D2994270470FB40CBC03BC30
:102AA000FFF7C1BE91EA030F10B581F000413FF579
:102AB000F5AB83F0004300F009B8000010B591EACF
:102AC000030F48BF83F000433FF5E8AB841A71EB76
:102AD000030C07D212198CF0004C43EB0C03001BC3
:102AE00061EB0C01DFF8A4E14FEA1154A4EB135C95
:102AF0001EEA430F18BF9EEA445F00F0B08023EA4D
:102B00006E03524221EA0451C3EB6E0338BF5B1ED1
:102B1000DCF1200E25D322FA0CFE10EB0E0043FA56
:102B20000CFE41EB0E01CCF1200E03FA0EFE10EB71
:102B30000E0051F10001CCF1200E29D412FA0EF250
:102B400001EB0451BDE8104058BF7047401C1CBF4A
:102B5000B2F1004F704700280CBF491C20F0010063
:102B6000704712EB020E43EB030218BF4FF0010E49
:102B70004EEA4202ACF1200CDCF11E0E54D943FAAD
:102B80000CFE10EB0E0051F1FF31CCF11E0ED5D52D
:102B90000EF1010E12FA0EFE404141EB010101EB74
:102BA000445C5FEA5C5C10D910EBDE7001EB045111
:102BB00038BFBEF1004FBDE8104018BF7047002875
:102BC0000CBF491C20F00100704730D24FEAD42CD2
:102BD00011F5001124F400641BD0B1FA81F20B3A14
:102BE000A41AA41ED2F12003914030FA03F3194332
:102BF000904001EBCC71002C01EB0451BDE810407A
:102C0000A8BF704701F1C0414FF0000001F0004142
:102C10007047B0FA80F310FA03F100D110BDE41A46
:102C2000173C4805C90AE4E701EB045110BD4910FF
:102C300001EB0451BDE810404FEA300002E04FF0D4
:102C4000000170474A0008BF0042F8D0B2F5001FEB
:102C500028BF704701F000414FF0000070479EEA26
:102C6000445F07D011EA5E0FBDE8104004BF0021A9
:102C700000207047BDE8104070B5FFF789FE00BF27
:102C800040DFF63E83F00041104670470000E0FF51
:102C900043004FEAD30C4FEA3C0C43401FBF4007B0
:102CA0000CF1605113F0FE4F70471CF0006F03D120
:102CB00000200CF0004170470CF0004343EA5070D4
:102CC00010B540EACC0000F050FA00BF00000092BE
:102CD0004FEA0001FFF7AABE4FF000414FF000009D
:102CE000A1F500217047000090EA010F48BF81F074
:102CF000004100F18C82421A3CBF801A89184FEAC9
:102D0000D0524FF07F4C1CEA410FA2EBD15318BFB9
:102D10009CEA026F00F03B804FF0004C4CEA002030
:102D20004CEA012121FA03FC10EB0C0C1ED202F13B
:102D3000FF325FEA1C2040EBC25038BF70471CF0E6
:102D40007F0F4FEA400C18BFBCF17F4F38BF704770
:102D5000C3F12003994008BF20F00100BCF17F4F70
:102D600038BF7047A0F1C04000F045BA4FEA3C00C0
:102D7000000A40EBC25028BF1CF0FF0F4FEA400C86
:102D8000E6D018BFBCF17F4F38BF7047EAE79CEA36
:102D9000026F05D010EA5C0F08BF00F000407047DA
:102DA00010B500F0E2F900BF64FBBE3E50EA010C32
:102DB00000F113801CF5000F58BFBCF5000F01D4C3
:102DC0008842704707D710F5000F58BF11F5000F64
:102DD00022D488427047894270471CF5000F04D501
:102DE000BCF5000FF7D5814270474FF0807C1CEB9B
:102DF000400F38BF1CEB410F0ED28142704710B517
:102E0000FFF7D4FFEFF3008020F0104038BF40F010
:102E1000004080F3008810BDBDE8104010B500F000
:102E2000A4F900BF0000000900F007B84FF04040CF
:102E300010F1004FEFF300807047401058BFC0F111
:102E40004040491058BFC1F140418142EFF300803A
:102E5000704700004FF47F0C1CEAD0121EBF1CEA22
:102E6000D11392EA0C0F93EA0C0F00F0858090EAE0
:102E7000010F48BF42F4807240F4000C41F400009E
:102E80002CF07F4120F07F4000B58142A2EB03028D
:102E90000FF2081CACEB504EC0F100009EF800E0B1
:102EA0004FEA4E0E00FB0EFC38BF49004FEA2C1CC7
:102EB00002F5FA020CFB0EF34FEACE1E4FEA112C7C
:102EC0004FEAC1210EEB635E42EB22420EFB0CFC8B
:102ED0004FEA1C5300FB03114FEA112C4FEA01315A
:102EE0000EFB0CFC4FEADC4C00FB0C11C14228BF6E
:102EF00009184CEB03335DF804EB10EB410143EB95
:102F0000C250B2F57C0F38BF704729D512F0F00FD0
:102F10001CBF00F1C04000F0004070470081828378
:102F20008485868788898B8C8D8E8F9192939596D8
:102F300097999A9C9D9FA0A2A3A5A7A8AAACAEB062
:102F4000B2B3B5B7B9BCBEC0C2C5C7C9CCCED1D467
:102F5000D7D9DCDFE2E6E9ECF0F3F7FAFE00000097
:102F60004FEA400C0CF1807CBCF17E4F28BF7047CB
:102F7000B0F1C04000F03FB990EA010F0CEAD11364
:102F800048BF42F48072624538BF634507D213F4EC
:102F90007F0F16D080EA010000F00040704710B5A6
:102FA00000F0E3F8097EFC3E00F005B880EA01007D
:102FB00000F00040704780EA010000F0004000F09F
:102FC0001AB912F47F0F04BF0248704780EA01006B
:102FD00000F011B90000C07F41000B0ED3F19E023A
:102FE00008D950F400034FEA032323FA02F048BF44
:102FF0004042704710B500F0B8F800BF49922480F5
:10300000002070476FF0004282EA20007047000005
:1030100010F0004148BF4042B0FA80F310FA03F2CA
:10302000C3F19D030BD051EAC35101EB12205306AB
:1030300038BF704700F1010008BF20F00100704761
:10304000B0FA80F310FA03F2C3F19D030AD0D90558
:1030500001EB1220530638BF704700F1010008BF92
:1030600020F00100704700004FF47F0C1CEAD012E2
:103070001EBF1CEAD11392EA0C0F93EA0C0F00F06A
:10308000478090EA010F48BF42F480724FF0004C35
:103090004CEA00204CEA012102EB0302A0FB0113E1
:1030A000A2F50002002918BF43F001035B0028BF0E
:1030B0004FEA330342EB22425FEA132C4CEBC2503F
:1030C0002EBFBCEB436FB2F57C0F70474FEA036C29
:1030D000BCF1004F08BF20F00100B2F57C0F38BFF3
:1030E00070470BD582F0FF0212F5803FC8BF7047D2
:1030F00000F1C040D8BF00F00040704700F5000C60
:103100005FEA4C0C48BF7047B0F1C04000F073B8A4
:1031100090EA010F0CEAD11348BF42F48072624575
:1031200038BF634504D280EA010000F000407047D8
:1031300010B500F01AF800BF8900013E00F007B892
:1031400000F009B85FEA410C5FEA1C6C08D080EA25
:10315000010000F050B85FEA400C5FEA1C6CF6D149
:103160004FF00040A0F5800070470EF1020E2EF0E7
:10317000030E5EF8044B244204D44FEA4102B2F13C
:103180007F4F11D84FEA4003B3F17F4F0CD80ED1D7
:103190004FEAD07CB2F17F4F0CEB4C0C0CF1020CDF
:1031A00008BF4CEBD17C04E04FF0080C01E04FEA83
:1031B000D17C0CEB4C0324FA03F404F00704B4F1C3
:1031C000040C06D20EEB840CBDE810404CF0010C50
:1031D0006047DFE80CF0070802024FF00040A0F55E
:1031E000800010BD0846420018BFD2F1807288BF2F
:1031F00000F0004010BDFF2141EAD050C0057047EB
:1032000090EA010F48BF81F000413FF574AD421ACA
:1032100004D882F00042A0EB020011444FEAD052E1
:103220004FF07F4C1CEA410FA2EBD15318BF9CEA30
:10323000026F4AD04FF0004C4CEA00204CEA0121CA
:1032400021FA03FCB0EB0C0C0FD412F0FE0F36D0B9
:103250005FEA4C001DD5001240EBC25038BF7047EA
:103260001CF03F0F18BF70470BE0A2F101025FEAAC
:103270001C2040EBC25038BF70471CF07F0F18BFB6
:103280007047C3F12003994014BF401E20F0010095
:10329000704780084FEA122308BF7047B0FA80FCDD
:1032A000A2EB0C02CCF1280C60FA0CF093EA122F7E
:1032B00004BF00EBC25070474FEAC3707047130A57
:1032C0005FEADC1008BF7047F6E79CEA026F04D0A3
:1032D00010EA5C0F08BF0020704710B5FFF745FFEC
:1032E00040DFF63E81F0004070470CF00F03092BE1
:1032F00008BF082000F059800A2B0BD0082B18BFFC
:10330000704708BF1CF0400F0AD04FF000004FF08C
:10331000000170471CF0400F18BF4FF0004070478D
:103320001CF0100F08D020F0704300F07F4242EAFA
:10333000D3014FEA4370704700F0604021F07F42B4
:1033400042EA000201F07F4040EA727070474FF09D
:10335000FF0C4CF4E06C1CEA11531CBF9CEA030CFC
:103360009445C2BFDA4201EB02517047002B0DD0E9
:10337000BCF1000F0FD0002A01F00041A4BF41F0C2
:10338000E04141F07F614FF00000704701F00041E3
:103390004FF00000704750EA01334FF09B0C18BF0C
:1033A0004CF0806C7FF41AA870471CF4801F11D079
:1033B0001CF4E02F03D06FEACC31490070474FF086
:1033C0004050EFF3008222F0704242EA000282F3A2
:1033D000008870474FF000007047000000000000B8
:1033E0004C5555555555A53F7751C1166CC156BF23
:1033F0009015CB19A001FA3EAD529C804F7E92BE33
:10340000C4B1B4BD9EEE213ED43888BEE9FAA8BD51
:1034100000004054FB21F93F3163621A61B4D03D92
:103420000000601A61B4D03D7370032E8A19A33B6B
:103430000000002E8A19A33BC14920259A837B39BD
:1034400000000000000000006E83F9A22915444E20
:10345000D15727FCC0DD34F5999562DB4190433CA0
:10346000AB6351FE61C5BBDE3A6E24B7E0D24D427C
:10347000EA2E49061C92D1091CEB1DFE3EA729B17C
:10348000F53582E88444BB2E26709CE9417E5FB40A
:1034900039D69139F43953838B5F849C3B28F9BD2D
:1034A000FF97F81F0F9805DE8B112FEF1F6D0A5A3B
:1034B000CF7E366DB709CB27663F464F2DEA5F9E1C
:1034C000C7BA27757BF1E5EBF739073DEA92528AD7
:1034D000B15FFB6B085D8D1FA6F810111111813FC4
:1034E000D561C119A0012ABF7DFEB157E31DC73EBA
:1034F000EB9C2B8AE6E55ABE7CD5CF5A3AD9E53DFE
:1035000020350008000000203000000028010008DD
:103510005035000830000020D0130000440100089E
:103520002C01000054010000000000000000000019
:1035300000000000000000000000000000A24A049B
:103540000000000000000000010203040607080953
:040000050800018965
:00000001FF
